{
  "_format": "hh-sol-artifact-1",
  "contractName": "OapRouter",
  "sourceName": "contracts/staking/OapRouter.sol",
  "abi": [
    {
      "inputs": [
        {
          "internalType": "address",
          "name": "_pancakeRouter",
          "type": "address"
        },
        {
          "internalType": "address",
          "name": "_rewardRouter",
          "type": "address"
        },
        {
          "internalType": "address",
          "name": "_weth",
          "type": "address"
        }
      ],
      "stateMutability": "nonpayable",
      "type": "constructor"
    },
    {
      "anonymous": false,
      "inputs": [
        {
          "indexed": true,
          "internalType": "address",
          "name": "previousOwner",
          "type": "address"
        },
        {
          "indexed": true,
          "internalType": "address",
          "name": "newOwner",
          "type": "address"
        }
      ],
      "name": "OwnershipTransferred",
      "type": "event"
    },
    {
      "inputs": [],
      "name": "owner",
      "outputs": [
        {
          "internalType": "address",
          "name": "",
          "type": "address"
        }
      ],
      "stateMutability": "view",
      "type": "function"
    },
    {
      "inputs": [],
      "name": "pancakeRouter",
      "outputs": [
        {
          "internalType": "address",
          "name": "",
          "type": "address"
        }
      ],
      "stateMutability": "view",
      "type": "function"
    },
    {
      "inputs": [],
      "name": "renounceOwnership",
      "outputs": [],
      "stateMutability": "nonpayable",
      "type": "function"
    },
    {
      "inputs": [],
      "name": "rewardRouter",
      "outputs": [
        {
          "internalType": "address",
          "name": "",
          "type": "address"
        }
      ],
      "stateMutability": "view",
      "type": "function"
    },
    {
      "inputs": [
        {
          "internalType": "address",
          "name": "_router",
          "type": "address"
        }
      ],
      "name": "setPancakeRouter",
      "outputs": [],
      "stateMutability": "nonpayable",
      "type": "function"
    },
    {
      "inputs": [
        {
          "internalType": "address",
          "name": "_router",
          "type": "address"
        }
      ],
      "name": "setRewardRouter",
      "outputs": [],
      "stateMutability": "nonpayable",
      "type": "function"
    },
    {
      "inputs": [
        {
          "internalType": "address",
          "name": "_token",
          "type": "address"
        },
        {
          "internalType": "bool",
          "name": "_isWhitelist",
          "type": "bool"
        }
      ],
      "name": "setWhitelistToken",
      "outputs": [],
      "stateMutability": "nonpayable",
      "type": "function"
    },
    {
      "inputs": [
        {
          "internalType": "address",
          "name": "tokenIn",
          "type": "address"
        },
        {
          "internalType": "address",
          "name": "tokenOut",
          "type": "address"
        },
        {
          "internalType": "uint256",
          "name": "amountIn",
          "type": "uint256"
        },
        {
          "internalType": "uint256",
          "name": "amountOutMin",
          "type": "uint256"
        },
        {
          "internalType": "uint256",
          "name": "minUsdo",
          "type": "uint256"
        },
        {
          "internalType": "uint256",
          "name": "minOap",
          "type": "uint256"
        }
      ],
      "name": "swapAndStake",
      "outputs": [],
      "stateMutability": "nonpayable",
      "type": "function"
    },
    {
      "inputs": [
        {
          "internalType": "address",
          "name": "tokenOut",
          "type": "address"
        },
        {
          "internalType": "uint256",
          "name": "amountOutMin",
          "type": "uint256"
        },
        {
          "internalType": "uint256",
          "name": "minUsdo",
          "type": "uint256"
        },
        {
          "internalType": "uint256",
          "name": "minOap",
          "type": "uint256"
        }
      ],
      "name": "swapAndStakeETH",
      "outputs": [],
      "stateMutability": "payable",
      "type": "function"
    },
    {
      "inputs": [
        {
          "internalType": "address",
          "name": "newOwner",
          "type": "address"
        }
      ],
      "name": "transferOwnership",
      "outputs": [],
      "stateMutability": "nonpayable",
      "type": "function"
    },
    {
      "inputs": [],
      "name": "weth",
      "outputs": [
        {
          "internalType": "address",
          "name": "",
          "type": "address"
        }
      ],
      "stateMutability": "view",
      "type": "function"
    },
    {
      "inputs": [
        {
          "internalType": "address",
          "name": "",
          "type": "address"
        }
      ],
      "name": "whitelistTokenOut",
      "outputs": [
        {
          "internalType": "bool",
          "name": "",
          "type": "bool"
        }
      ],
      "stateMutability": "view",
      "type": "function"
    }
  ],
  "bytecode": "0x608060405234801561001057600080fd5b50604051610ed7380380610ed78339818101604052606081101561003357600080fd5b5080516020820151604090920151909190600061004e6100de565b600080546001600160a01b0319166001600160a01b0383169081178255604051929350917f8be0079c531659141344cd1fd0a4f28419497f9722a3daafe3b4186f6b6457e0908290a35060018055600280546001600160a01b039485166001600160a01b0319918216179091556003805493851693821693909317909255600480549190931691161790556100e2565b3390565b610de6806100f16000396000f3fe6080604052600436106100975760003560e01c8063081b0b1a1461009c5780630938a3b5146100d65780633fc8cef31461012b578063446dbdf11461015c5780635a3bb989146101a3578063715018a6146101b85780637c374f99146101cd5780638da5cb5b14610208578063977b91d71461021d578063c21ebd0714610250578063f2fde38b14610265578063f8316c9014610298575b600080fd5b6100d4600480360360808110156100b257600080fd5b506001600160a01b0381351690602081013590604081013590606001356102cb565b005b3480156100e257600080fd5b506100d4600480360360c08110156100f957600080fd5b506001600160a01b03813581169160208101359091169060408101359060608101359060808101359060a001356103eb565b34801561013757600080fd5b50610140610908565b604080516001600160a01b039092168252519081900360200190f35b34801561016857600080fd5b5061018f6004803603602081101561017f57600080fd5b50356001600160a01b0316610917565b604080519115158252519081900360200190f35b3480156101af57600080fd5b5061014061092c565b3480156101c457600080fd5b506100d461093b565b3480156101d957600080fd5b506100d4600480360360408110156101f057600080fd5b506001600160a01b03813516906020013515156109cb565b34801561021457600080fd5b50610140610a4e565b34801561022957600080fd5b506100d46004803603602081101561024057600080fd5b50356001600160a01b0316610a5d565b34801561025c57600080fd5b50610140610ad7565b34801561027157600080fd5b506100d46004803603602081101561028857600080fd5b50356001600160a01b0316610ae6565b3480156102a457600080fd5b506100d4600480360360208110156102bb57600080fd5b50356001600160a01b0316610bcc565b60026001541415610311576040805162461bcd60e51b815260206004820152601f6024820152600080516020610d2b833981519152604482015290519081900360640190fd5b600260015534610367576040805162461bcd60e51b815260206004820152601c60248201527b4f6170526f757465723a20696e76616c6964206d73672e76616c756560201b604482015290519081900360640190fd5b6004805460408051630d0e30db60e41b815290516001600160a01b039092169263d0e30db0923492808301926000929182900301818588803b1580156103ac57600080fd5b505af11580156103c0573d6000803e3d6000fd5b50506004546103e193506001600160a01b03169150869050348686866103eb565b5050600180555050565b60026001541415610431576040805162461bcd60e51b815260206004820152601f6024820152600080516020610d2b833981519152604482015290519081900360640190fd5b6002600155604080516370a0823160e01b8152336004820152905185916001600160a01b038916916370a0823191602480820192602092909190829003018186803b15801561047f57600080fd5b505afa158015610493573d6000803e3d6000fd5b505050506040513d60208110156104a957600080fd5b505110156104fa576040805162461bcd60e51b815260206004820152601960248201527813d85c149bdd5d195c8e8818985b185b98d948195e18d95959603a1b604482015290519081900360640190fd5b6001600160a01b03851660009081526005602052604090205460ff16610567576040805162461bcd60e51b815260206004820152601e60248201527f4f6170526f757465723a204e6f742077686974656c69737420746f6b656e0000604482015290519081900360640190fd5b6000856001600160a01b03166370a08231336040518263ffffffff1660e01b815260040180826001600160a01b0316815260200191505060206040518083038186803b1580156105b657600080fd5b505afa1580156105ca573d6000803e3d6000fd5b505050506040513d60208110156105e057600080fd5b5051604080516002808252606080830184529394509091602083019080368337019050509050878160008151811061061457fe5b60200260200101906001600160a01b031690816001600160a01b031681525050868160018151811061064257fe5b6001600160a01b039283166020918202929092018101919091526002546040516338ed173960e01b8152600481018a8152602482018a90523360648301819052607842016084840181905260a060448501908152885160a4860152885195909716966338ed1739968e968e968b96939260c490910191878201910280838360005b838110156106db5781810151838201526020016106c3565b505050509050019650505050505050600060405180830381600087803b15801561070457600080fd5b505af1158015610718573d6000803e3d6000fd5b505050506040513d6000823e601f3d908101601f19168201604052602081101561074157600080fd5b8101908080516040519392919084600160201b82111561076057600080fd5b90830190602082018581111561077557600080fd5b82518660208202830111600160201b8211171561079157600080fd5b82525081516020918201928201910280838360005b838110156107be5781810151838201526020016107a6565b50505050905001604052505050506000876001600160a01b03166370a08231336040518263ffffffff1660e01b815260040180826001600160a01b0316815260200191505060206040518083038186803b15801561081b57600080fd5b505afa15801561082f573d6000803e3d6000fd5b505050506040513d602081101561084557600080fd5b50516003549091506001600160a01b03166312ec52f2896108668487610c46565b8888336040518663ffffffff1660e01b815260040180866001600160a01b03168152602001858152602001848152602001838152602001826001600160a01b0316815260200195505050505050602060405180830381600087803b1580156108cd57600080fd5b505af11580156108e1573d6000803e3d6000fd5b505050506040513d60208110156108f757600080fd5b505060018055505050505050505050565b6004546001600160a01b031681565b60056020526000908152604090205460ff1681565b6003546001600160a01b031681565b610943610c8f565b6000546001600160a01b03908116911614610993576040805162461bcd60e51b81526020600482018190526024820152600080516020610d71833981519152604482015290519081900360640190fd5b600080546040516001600160a01b0390911690600080516020610d91833981519152908390a3600080546001600160a01b0319169055565b6109d3610c8f565b6000546001600160a01b03908116911614610a23576040805162461bcd60e51b81526020600482018190526024820152600080516020610d71833981519152604482015290519081900360640190fd5b6001600160a01b03919091166000908152600560205260409020805460ff1916911515919091179055565b6000546001600160a01b031690565b610a65610c8f565b6000546001600160a01b03908116911614610ab5576040805162461bcd60e51b81526020600482018190526024820152600080516020610d71833981519152604482015290519081900360640190fd5b600380546001600160a01b0319166001600160a01b0392909216919091179055565b6002546001600160a01b031681565b610aee610c8f565b6000546001600160a01b03908116911614610b3e576040805162461bcd60e51b81526020600482018190526024820152600080516020610d71833981519152604482015290519081900360640190fd5b6001600160a01b038116610b835760405162461bcd60e51b8152600401808060200182810382526026815260200180610d4b6026913960400191505060405180910390fd5b600080546040516001600160a01b0380851693921691600080516020610d9183398151915291a3600080546001600160a01b0319166001600160a01b0392909216919091179055565b610bd4610c8f565b6000546001600160a01b03908116911614610c24576040805162461bcd60e51b81526020600482018190526024820152600080516020610d71833981519152604482015290519081900360640190fd5b600280546001600160a01b0319166001600160a01b0392909216919091179055565b6000610c8883836040518060400160405280601e81526020017f536166654d6174683a207375627472616374696f6e206f766572666c6f770000815250610c93565b9392505050565b3390565b60008184841115610d225760405162461bcd60e51b81526004018080602001828103825283818151815260200191508051906020019080838360005b83811015610ce7578181015183820152602001610ccf565b50505050905090810190601f168015610d145780820380516001836020036101000a031916815260200191505b509250505060405180910390fd5b50505090039056fe5265656e7472616e637947756172643a207265656e7472616e742063616c6c004f776e61626c653a206e6577206f776e657220697320746865207a65726f20616464726573734f776e61626c653a2063616c6c6572206973206e6f7420746865206f776e65728be0079c531659141344cd1fd0a4f28419497f9722a3daafe3b4186f6b6457e0a2646970667358221220353dc531414a1b6347c8a12ac5224be440ac3f16d9c11034ccc72f6ef42e586564736f6c634300060c0033",
  "linkReferences": {},
  "deployedLinkReferences": {}
}