{
  "_format": "hh-sol-artifact-1",
  "contractName": "OpenStaking",
  "sourceName": "contracts/staking/OpenStaking.sol",
  "abi": [
    {
      "inputs": [
        {
          "internalType": "address",
          "name": "_depositToken",
          "type": "address"
        }
      ],
      "stateMutability": "nonpayable",
      "type": "constructor"
    },
    {
      "anonymous": false,
      "inputs": [
        {
          "indexed": true,
          "internalType": "address",
          "name": "owner",
          "type": "address"
        },
        {
          "indexed": true,
          "internalType": "address",
          "name": "spender",
          "type": "address"
        },
        {
          "indexed": false,
          "internalType": "uint256",
          "name": "value",
          "type": "uint256"
        }
      ],
      "name": "Approval",
      "type": "event"
    },
    {
      "anonymous": false,
      "inputs": [
        {
          "indexed": true,
          "internalType": "address",
          "name": "account",
          "type": "address"
        },
        {
          "indexed": false,
          "internalType": "uint256",
          "name": "preRebaseTokenAmount",
          "type": "uint256"
        },
        {
          "indexed": false,
          "internalType": "uint256",
          "name": "postRebaseTokenAmount",
          "type": "uint256"
        },
        {
          "indexed": false,
          "internalType": "uint256",
          "name": "sharesAmount",
          "type": "uint256"
        }
      ],
      "name": "SharesBurnt",
      "type": "event"
    },
    {
      "anonymous": false,
      "inputs": [
        {
          "indexed": true,
          "internalType": "address",
          "name": "sender",
          "type": "address"
        },
        {
          "indexed": false,
          "internalType": "uint256",
          "name": "amount",
          "type": "uint256"
        },
        {
          "indexed": false,
          "internalType": "address",
          "name": "referral",
          "type": "address"
        }
      ],
      "name": "Submitted",
      "type": "event"
    },
    {
      "anonymous": false,
      "inputs": [
        {
          "indexed": true,
          "internalType": "address",
          "name": "from",
          "type": "address"
        },
        {
          "indexed": true,
          "internalType": "address",
          "name": "to",
          "type": "address"
        },
        {
          "indexed": false,
          "internalType": "uint256",
          "name": "value",
          "type": "uint256"
        }
      ],
      "name": "Transfer",
      "type": "event"
    },
    {
      "anonymous": false,
      "inputs": [
        {
          "indexed": true,
          "internalType": "address",
          "name": "from",
          "type": "address"
        },
        {
          "indexed": true,
          "internalType": "address",
          "name": "to",
          "type": "address"
        },
        {
          "indexed": false,
          "internalType": "uint256",
          "name": "sharesValue",
          "type": "uint256"
        }
      ],
      "name": "TransferShares",
      "type": "event"
    },
    {
      "inputs": [],
      "name": "FEE_DECIMALS",
      "outputs": [
        {
          "internalType": "uint256",
          "name": "",
          "type": "uint256"
        }
      ],
      "stateMutability": "view",
      "type": "function"
    },
    {
      "inputs": [
        {
          "internalType": "address",
          "name": "_account",
          "type": "address"
        }
      ],
      "name": "addOperator",
      "outputs": [],
      "stateMutability": "nonpayable",
      "type": "function"
    },
    {
      "inputs": [
        {
          "internalType": "address",
          "name": "_owner",
          "type": "address"
        },
        {
          "internalType": "address",
          "name": "_spender",
          "type": "address"
        }
      ],
      "name": "allowance",
      "outputs": [
        {
          "internalType": "uint256",
          "name": "",
          "type": "uint256"
        }
      ],
      "stateMutability": "view",
      "type": "function"
    },
    {
      "inputs": [
        {
          "internalType": "address",
          "name": "_spender",
          "type": "address"
        },
        {
          "internalType": "uint256",
          "name": "_amount",
          "type": "uint256"
        }
      ],
      "name": "approve",
      "outputs": [
        {
          "internalType": "bool",
          "name": "",
          "type": "bool"
        }
      ],
      "stateMutability": "nonpayable",
      "type": "function"
    },
    {
      "inputs": [
        {
          "internalType": "address",
          "name": "_account",
          "type": "address"
        }
      ],
      "name": "balanceOf",
      "outputs": [
        {
          "internalType": "uint256",
          "name": "",
          "type": "uint256"
        }
      ],
      "stateMutability": "view",
      "type": "function"
    },
    {
      "inputs": [],
      "name": "decimals",
      "outputs": [
        {
          "internalType": "uint8",
          "name": "",
          "type": "uint8"
        }
      ],
      "stateMutability": "pure",
      "type": "function"
    },
    {
      "inputs": [
        {
          "internalType": "address",
          "name": "_spender",
          "type": "address"
        },
        {
          "internalType": "uint256",
          "name": "_subtractedValue",
          "type": "uint256"
        }
      ],
      "name": "decreaseAllowance",
      "outputs": [
        {
          "internalType": "bool",
          "name": "",
          "type": "bool"
        }
      ],
      "stateMutability": "nonpayable",
      "type": "function"
    },
    {
      "inputs": [],
      "name": "depositToken",
      "outputs": [
        {
          "internalType": "address",
          "name": "",
          "type": "address"
        }
      ],
      "stateMutability": "view",
      "type": "function"
    },
    {
      "inputs": [
        {
          "internalType": "address",
          "name": "_token",
          "type": "address"
        }
      ],
      "name": "emergencyWithdraw",
      "outputs": [],
      "stateMutability": "nonpayable",
      "type": "function"
    },
    {
      "inputs": [
        {
          "internalType": "uint256",
          "name": "_amount",
          "type": "uint256"
        }
      ],
      "name": "getAmountAfterFee",
      "outputs": [
        {
          "internalType": "uint256",
          "name": "",
          "type": "uint256"
        }
      ],
      "stateMutability": "view",
      "type": "function"
    },
    {
      "inputs": [
        {
          "internalType": "uint256",
          "name": "_sharesAmount",
          "type": "uint256"
        }
      ],
      "name": "getPooledEthByShares",
      "outputs": [
        {
          "internalType": "uint256",
          "name": "",
          "type": "uint256"
        }
      ],
      "stateMutability": "view",
      "type": "function"
    },
    {
      "inputs": [
        {
          "internalType": "uint256",
          "name": "_ethAmount",
          "type": "uint256"
        }
      ],
      "name": "getSharesByPooledEth",
      "outputs": [
        {
          "internalType": "uint256",
          "name": "",
          "type": "uint256"
        }
      ],
      "stateMutability": "view",
      "type": "function"
    },
    {
      "inputs": [
        {
          "internalType": "address",
          "name": "_account",
          "type": "address"
        }
      ],
      "name": "getStakeInfo",
      "outputs": [
        {
          "internalType": "uint256[]",
          "name": "",
          "type": "uint256[]"
        }
      ],
      "stateMutability": "view",
      "type": "function"
    },
    {
      "inputs": [
        {
          "internalType": "address",
          "name": "_account",
          "type": "address"
        }
      ],
      "name": "getStakedAmount",
      "outputs": [
        {
          "internalType": "uint256",
          "name": "",
          "type": "uint256"
        }
      ],
      "stateMutability": "view",
      "type": "function"
    },
    {
      "inputs": [],
      "name": "getTotalPooledEther",
      "outputs": [
        {
          "internalType": "uint256",
          "name": "",
          "type": "uint256"
        }
      ],
      "stateMutability": "view",
      "type": "function"
    },
    {
      "inputs": [],
      "name": "getTotalShares",
      "outputs": [
        {
          "internalType": "uint256",
          "name": "",
          "type": "uint256"
        }
      ],
      "stateMutability": "view",
      "type": "function"
    },
    {
      "inputs": [
        {
          "internalType": "address",
          "name": "_spender",
          "type": "address"
        },
        {
          "internalType": "uint256",
          "name": "_addedValue",
          "type": "uint256"
        }
      ],
      "name": "increaseAllowance",
      "outputs": [
        {
          "internalType": "bool",
          "name": "",
          "type": "bool"
        }
      ],
      "stateMutability": "nonpayable",
      "type": "function"
    },
    {
      "inputs": [
        {
          "internalType": "address",
          "name": "",
          "type": "address"
        }
      ],
      "name": "lastClaimTimestamp",
      "outputs": [
        {
          "internalType": "uint256",
          "name": "",
          "type": "uint256"
        }
      ],
      "stateMutability": "view",
      "type": "function"
    },
    {
      "inputs": [],
      "name": "name",
      "outputs": [
        {
          "internalType": "string",
          "name": "",
          "type": "string"
        }
      ],
      "stateMutability": "pure",
      "type": "function"
    },
    {
      "inputs": [
        {
          "internalType": "address",
          "name": "",
          "type": "address"
        }
      ],
      "name": "operators",
      "outputs": [
        {
          "internalType": "bool",
          "name": "",
          "type": "bool"
        }
      ],
      "stateMutability": "view",
      "type": "function"
    },
    {
      "inputs": [
        {
          "internalType": "address",
          "name": "_account",
          "type": "address"
        }
      ],
      "name": "removeOperator",
      "outputs": [],
      "stateMutability": "nonpayable",
      "type": "function"
    },
    {
      "inputs": [
        {
          "internalType": "uint256",
          "name": "_fee",
          "type": "uint256"
        }
      ],
      "name": "setUnstakingFee",
      "outputs": [],
      "stateMutability": "nonpayable",
      "type": "function"
    },
    {
      "inputs": [
        {
          "internalType": "uint256",
          "name": "_threshold",
          "type": "uint256"
        }
      ],
      "name": "setUnstakingThreshold",
      "outputs": [],
      "stateMutability": "nonpayable",
      "type": "function"
    },
    {
      "inputs": [
        {
          "internalType": "address",
          "name": "_account",
          "type": "address"
        }
      ],
      "name": "sharesOf",
      "outputs": [
        {
          "internalType": "uint256",
          "name": "",
          "type": "uint256"
        }
      ],
      "stateMutability": "view",
      "type": "function"
    },
    {
      "inputs": [
        {
          "internalType": "address",
          "name": "",
          "type": "address"
        }
      ],
      "name": "stakedAmounts",
      "outputs": [
        {
          "internalType": "uint256",
          "name": "",
          "type": "uint256"
        }
      ],
      "stateMutability": "view",
      "type": "function"
    },
    {
      "inputs": [
        {
          "internalType": "address",
          "name": "_referral",
          "type": "address"
        },
        {
          "internalType": "uint256",
          "name": "_amount",
          "type": "uint256"
        }
      ],
      "name": "submit",
      "outputs": [
        {
          "internalType": "uint256",
          "name": "",
          "type": "uint256"
        }
      ],
      "stateMutability": "nonpayable",
      "type": "function"
    },
    {
      "inputs": [],
      "name": "symbol",
      "outputs": [
        {
          "internalType": "string",
          "name": "",
          "type": "string"
        }
      ],
      "stateMutability": "pure",
      "type": "function"
    },
    {
      "inputs": [],
      "name": "totalSupply",
      "outputs": [
        {
          "internalType": "uint256",
          "name": "",
          "type": "uint256"
        }
      ],
      "stateMutability": "view",
      "type": "function"
    },
    {
      "inputs": [
        {
          "internalType": "address",
          "name": "_recipient",
          "type": "address"
        },
        {
          "internalType": "uint256",
          "name": "_amount",
          "type": "uint256"
        }
      ],
      "name": "transfer",
      "outputs": [
        {
          "internalType": "bool",
          "name": "",
          "type": "bool"
        }
      ],
      "stateMutability": "nonpayable",
      "type": "function"
    },
    {
      "inputs": [
        {
          "internalType": "address",
          "name": "_sender",
          "type": "address"
        },
        {
          "internalType": "address",
          "name": "_recipient",
          "type": "address"
        },
        {
          "internalType": "uint256",
          "name": "_amount",
          "type": "uint256"
        }
      ],
      "name": "transferFrom",
      "outputs": [
        {
          "internalType": "bool",
          "name": "",
          "type": "bool"
        }
      ],
      "stateMutability": "nonpayable",
      "type": "function"
    },
    {
      "inputs": [
        {
          "internalType": "address",
          "name": "_recipient",
          "type": "address"
        },
        {
          "internalType": "uint256",
          "name": "_sharesAmount",
          "type": "uint256"
        }
      ],
      "name": "transferShares",
      "outputs": [
        {
          "internalType": "uint256",
          "name": "",
          "type": "uint256"
        }
      ],
      "stateMutability": "nonpayable",
      "type": "function"
    },
    {
      "inputs": [],
      "name": "unstake",
      "outputs": [
        {
          "internalType": "uint256",
          "name": "",
          "type": "uint256"
        }
      ],
      "stateMutability": "nonpayable",
      "type": "function"
    },
    {
      "inputs": [],
      "name": "unstakingFee",
      "outputs": [
        {
          "internalType": "uint256",
          "name": "",
          "type": "uint256"
        }
      ],
      "stateMutability": "view",
      "type": "function"
    },
    {
      "inputs": [],
      "name": "unstakingThreshold",
      "outputs": [
        {
          "internalType": "uint256",
          "name": "",
          "type": "uint256"
        }
      ],
      "stateMutability": "view",
      "type": "function"
    }
  ],
  "bytecode": "0x608060405260196007556201518060085534801561001c57600080fd5b50604051611eaa380380611eaa8339818101604052602081101561003f57600080fd5b505160016002819055600680546001600160a01b039093166001600160a01b031990931692909217909155336000908152600360205260409020805460ff19169091179055611e17806100936000396000f3fe608060405234801561001057600080fd5b50600436106101965760003560e01c806306fdde031461019b578063095ea7b31461021857806310c1c1031461025857806313e7c9d81461029057806318160ddd146102b657806319208451146102be5780631fc6a5db146102db578063203dd666146102f857806320ba56981461032457806323b872dd1461032c5780632def662014610362578063313ce5671461036a57806337cfdaca146102b657806339509351146103885780634da6a556146103b45780636a5f3aa4146103da5780636ff1c9bc146103e257806370a082311461040a5780637a28fb8814610430578063829c1c571461044d5780638fcb4e5b1461046a57806395d89b41146104965780639870d7fe1461049e578063a457c2d7146104c4578063a9059cbb146104f0578063ac8a584a1461051c578063b629409314610542578063bd9d518b1461055f578063c345315314610585578063c89039c5146105fb578063ccf288c61461061f578063d5002f2e14610627578063dd62ed3e1461062f578063f5eb42dc1461065d575b600080fd5b6101a3610683565b6040805160208082528351818301528351919283929083019185019080838360005b838110156101dd5781810151838201526020016101c5565b50505050905090810190601f16801561020a5780820380516001836020036101000a031916815260200191505b509250505060405180910390f35b6102446004803603604081101561022e57600080fd5b506001600160a01b0381351690602001356106a8565b604080519115158252519081900360200190f35b61027e6004803603602081101561026e57600080fd5b50356001600160a01b03166106bf565b60408051918252519081900360200190f35b610244600480360360208110156102a657600080fd5b50356001600160a01b03166106d1565b61027e6106e6565b61027e600480360360208110156102d457600080fd5b50356106f5565b61027e600480360360208110156102f157600080fd5b5035610736565b61027e6004803603604081101561030e57600080fd5b506001600160a01b038135169060200135610760565b61027e6107c1565b6102446004803603606081101561034257600080fd5b506001600160a01b038135811691602081013590911690604001356107c7565b61027e610854565b6103726108b1565b6040805160ff9092168252519081900360200190f35b6102446004803603604081101561039e57600080fd5b506001600160a01b0381351690602001356108b6565b61027e600480360360208110156103ca57600080fd5b50356001600160a01b03166108ec565b61027e610907565b610408600480360360208110156103f857600080fd5b50356001600160a01b031661090d565b005b61027e6004803603602081101561042057600080fd5b50356001600160a01b0316610a67565b61027e6004803603602081101561044657600080fd5b5035610a75565b6104086004803603602081101561046357600080fd5b5035610aa0565b61027e6004803603604081101561048057600080fd5b506001600160a01b038135169060200135610b4d565b6101a3610bcc565b610408600480360360208110156104b457600080fd5b50356001600160a01b0316610bec565b610244600480360360408110156104da57600080fd5b506001600160a01b038135169060200135610cd1565b6102446004803603604081101561050657600080fd5b506001600160a01b038135169060200135610d63565b6104086004803603602081101561053257600080fd5b50356001600160a01b0316610d70565b6104086004803603602081101561055857600080fd5b5035610e4d565b61027e6004803603602081101561057557600080fd5b50356001600160a01b0316610ef7565b6105ab6004803603602081101561059b57600080fd5b50356001600160a01b0316610f09565b60408051602080825283518183015283519192839290830191858101910280838360005b838110156105e75781810151838201526020016105cf565b505050509050019250505060405180910390f35b610603611055565b604080516001600160a01b039092168252519081900360200190f35b61027e611064565b61027e61106a565b61027e6004803603604081101561064557600080fd5b506001600160a01b0381358116916020013516611074565b61027e6004803603602081101561067357600080fd5b50356001600160a01b031661109f565b60408051808201909152600b81526a29ba30b5b2b21027b832b760a91b602082015290565b60006106b53384846110aa565b5060015b92915050565b60056020526000908152604090205481565b60036020526000908152604090205460ff1681565b60006106f06111b8565b905090565b6000806107006111b8565b905080610711576000915050610731565b61072d81610727610720611234565b869061124d565b906112ad565b9150505b919050565b6000806107546127106107276007548661124d90919063ffffffff16565b905061072d83826112ec565b60006002805414156107a7576040805162461bcd60e51b815260206004820152601f6024820152600080516020611cfc833981519152604482015290519081900360640190fd5b600280556107b5838361132e565b60016002559392505050565b60075481565b6001600160a01b03831660009081526001602090815260408083203384529091528120548281101561082a5760405162461bcd60e51b8152600401808060200182810382526021815260200180611cdb6021913960400191505060405180910390fd5b610835858585611572565b610849853361084484876112ec565b6110aa565b506001949350505050565b600060028054141561089b576040805162461bcd60e51b815260206004820152601f6024820152600080516020611cfc833981519152604482015290519081900360640190fd5b600280556108a7611602565b9050600160025590565b601290565b3360008181526001602090815260408083206001600160a01b038716845290915281205490916106b59185906108449086611730565b6001600160a01b031660009081526005602052604090205490565b60085481565b3360008181526003602052604090205460ff1661095f576040805162461bcd60e51b81526020600482015260166024820152600080516020611d1c833981519152604482015290519081900360640190fd5b816001600160a01b031663a9059cbb33846001600160a01b03166370a08231306040518263ffffffff1660e01b815260040180826001600160a01b0316815260200191505060206040518083038186803b1580156109bc57600080fd5b505afa1580156109d0573d6000803e3d6000fd5b505050506040513d60208110156109e657600080fd5b5051604080516001600160e01b031960e086901b1681526001600160a01b03909316600484015260248301919091525160448083019260209291908290030181600087803b158015610a3757600080fd5b505af1158015610a4b573d6000803e3d6000fd5b505050506040513d6020811015610a6157600080fd5b50505050565b60006106b9610a7583611788565b600080610a80611234565b905080610a91576000915050610731565b61072d816107276107206111b8565b3360008181526003602052604090205460ff16610af2576040805162461bcd60e51b81526020600482015260166024820152600080516020611d1c833981519152604482015290519081900360640190fd5b6107d0821115610b47576040805162461bcd60e51b815260206004820152601b60248201527a4f70656e5374616b696e673a206d6178206665652069732032302560281b604482015290519081900360640190fd5b50600755565b6000610b5a3384846117a3565b6040805183815290516001600160a01b038516913391600080516020611d3c8339815191529181900360200190a36000610b9383610a75565b6040805182815290519192506001600160a01b038616913391600080516020611da2833981519152919081900360200190a39392505050565b60408051808201909152600681526539ba27a822a760d11b602082015290565b3360008181526003602052604090205460ff16610c3e576040805162461bcd60e51b81526020600482015260166024820152600080516020611d1c833981519152604482015290519081900360640190fd5b6001600160a01b03821660009081526003602052604090205460ff1615610cac576040805162461bcd60e51b815260206004820152601d60248201527f4f70656e5374616b696e673a2065786973746564206f70657261746f72000000604482015290519081900360640190fd5b506001600160a01b03166000908152600360205260409020805460ff19166001179055565b3360009081526001602090815260408083206001600160a01b038616845290915281205482811015610d4a576040805162461bcd60e51b815260206004820152601e60248201527f4445435245415345445f414c4c4f57414e43455f42454c4f575f5a45524f0000604482015290519081900360640190fd5b610d59338561084484876112ec565b5060019392505050565b60006106b5338484611572565b3360008181526003602052604090205460ff16610dc2576040805162461bcd60e51b81526020600482015260166024820152600080516020611d1c833981519152604482015290519081900360640190fd5b6001600160a01b03821660009081526003602052604090205460ff16610e2b576040805162461bcd60e51b815260206004820152601960248201527827b832b729ba30b5b4b7339d103737ba1037b832b930ba37b960391b604482015290519081900360640190fd5b506001600160a01b03166000908152600360205260409020805460ff19169055565b3360008181526003602052604090205460ff16610e9f576040805162461bcd60e51b81526020600482015260166024820152600080516020611d1c833981519152604482015290519081900360640190fd5b81610ef1576040805162461bcd60e51b815260206004820152601e60248201527f4f70656e5374616b696e673a20696e76616c6964207468726573686f6c640000604482015290519081900360640190fd5b50600855565b60046020526000908152604090205481565b60408051600880825261012082019092526060918291906020820161010080368337019050509050610f396106e6565b81600081518110610f4657fe5b602002602001018181525050610f5a61106a565b81600181518110610f6757fe5b602002602001018181525050610f7c8361109f565b81600281518110610f8957fe5b602002602001018181525050610f9e836108ec565b81600381518110610fab57fe5b602002602001018181525050610fc083610a67565b81600481518110610fcd57fe5b60200260200101818152505060046000846001600160a01b03166001600160a01b03168152602001908152602001600020548160058151811061100c57fe5b6020026020010181815250506007548160068151811061102857fe5b6020026020010181815250506008548160078151811061104457fe5b602090810291909101015292915050565b6006546001600160a01b031681565b61271081565b60006106f0611234565b6001600160a01b03918216600090815260016020908152604080832093909416825291909152205490565b60006106b982611788565b6001600160a01b038316611101576040805162461bcd60e51b8152602060048201526019602482015278415050524f56455f46524f4d5f5a45524f5f4144445245535360381b604482015290519081900360640190fd5b6001600160a01b038216611156576040805162461bcd60e51b8152602060048201526017602482015276415050524f56455f544f5f5a45524f5f4144445245535360481b604482015290519081900360640190fd5b6001600160a01b03808416600081815260016020908152604080832094871680845294825291829020859055815185815291517f8c5be1e5ebec7d5bd14f71427d1e84f3dd0314c0f7b2291e5b200ac8c7c3b9259281900390910190a3505050565b600654604080516370a0823160e01b815230600482015290516000926001600160a01b0316916370a08231916024808301926020929190829003018186803b15801561120357600080fd5b505afa158015611217573d6000803e3d6000fd5b505050506040513d602081101561122d57600080fd5b5051905090565b60006106f0600080516020611dc2833981519152611921565b60008261125c575060006106b9565b8282028284828161126957fe5b04146112a65760405162461bcd60e51b8152600401808060200182810382526021815260200180611d816021913960400191505060405180910390fd5b9392505050565b60006112a683836040518060400160405280601a815260200179536166654d6174683a206469766973696f6e206279207a65726f60301b815250611925565b60006112a683836040518060400160405280601e81526020017f536166654d6174683a207375627472616374696f6e206f766572666c6f7700008152506119c7565b60003382611372576040805162461bcd60e51b815260206004820152600c60248201526b16915493d7d1115413d4d25560a21b604482015290519081900360640190fd5b600654604080516370a0823160e01b81526001600160a01b0384811660048301529151869392909216916370a0823191602480820192602092909190829003018186803b1580156113c257600080fd5b505afa1580156113d6573d6000803e3d6000fd5b505050506040513d60208110156113ec57600080fd5b5051101561143f576040805162461bcd60e51b815260206004820152601b60248201527a4f70656e5374616b696e673a2065786365656420616d6f756e747360281b604482015290519081900360640190fd5b600061144a846106f5565b600654604080516323b872dd60e01b81526001600160a01b0386811660048301523060248301526044820189905291519394509116916323b872dd916064808201926020929091908290030181600087803b1580156114a857600080fd5b505af11580156114bc573d6000803e3d6000fd5b505050506040513d60208110156114d257600080fd5b50506001600160a01b0382166000908152600560205260409020805485019055806114fa5750825b6115048282611a21565b506001600160a01b03808316600081815260046020908152604091829020429055815188815293891690840152805191927f96a25c8ce0baabc1fdefd93e9ed25d8e092a3332f3aa9a41722b5697231d1d1a929081900390910190a261156a8282611ae9565b949350505050565b600061157d826106f5565b905061158a8484836117a3565b826001600160a01b0316846001600160a01b0316600080516020611da2833981519152846040518082815260200191505060405180910390a3826001600160a01b0316846001600160a01b0316600080516020611d3c833981519152836040518082815260200191505060405180910390a350505050565b600854336000818152600460205260408120549092429161162291611730565b111561165f5760405162461bcd60e51b8152600401808060200182810382526025815260200180611d5c6025913960400191505060405180910390fd5b600061166a8261109f565b6001600160a01b038316600090815260056020526040812081905590915061169961169483610a75565b610736565b6006546040805163a9059cbb60e01b81526001600160a01b03878116600483015260248201859052915193945091169163a9059cbb916044808201926020929091908290030181600087803b1580156116f157600080fd5b505af1158015611705573d6000803e3d6000fd5b505050506040513d602081101561171b57600080fd5b5061172890508383611b51565b935050505090565b6000828201838110156112a6576040805162461bcd60e51b815260206004820152601b60248201527a536166654d6174683a206164646974696f6e206f766572666c6f7760281b604482015290519081900360640190fd5b6001600160a01b031660009081526020819052604090205490565b6001600160a01b0383166117fe576040805162461bcd60e51b815260206004820152601e60248201527f5452414e534645525f46524f4d5f5448455f5a45524f5f414444524553530000604482015290519081900360640190fd5b6001600160a01b038216611858576040805162461bcd60e51b815260206004820152601c60248201527b5452414e534645525f544f5f5448455f5a45524f5f4144445245535360201b604482015290519081900360640190fd5b6001600160a01b038316600090815260208190526040902054808211156118c6576040805162461bcd60e51b815260206004820152601f60248201527f5452414e534645525f414d4f554e545f455843454544535f42414c414e434500604482015290519081900360640190fd5b6118d081836112ec565b6001600160a01b0380861660009081526020819052604080822093909355908516815220546118ff9083611730565b6001600160a01b03909316600090815260208190526040902092909255505050565b5490565b600081836119b15760405162461bcd60e51b81526004018080602001828103825283818151815260200191508051906020019080838360005b8381101561197657818101518382015260200161195e565b50505050905090810190601f1680156119a35780820380516001836020036101000a031916815260200191505b509250505060405180910390fd5b5060008385816119bd57fe5b0495945050505050565b60008184841115611a195760405162461bcd60e51b815260206004820181815283516024840152835190928392604490910191908501908083836000831561197657818101518382015260200161195e565b505050900390565b60006001600160a01b038316611a79576040805162461bcd60e51b81526020600482015260186024820152774d494e545f544f5f5448455f5a45524f5f4144445245535360401b604482015290519081900360640190fd5b611a8b82611a85611234565b90611730565b9050611aa5600080516020611dc283398151915282611cd6565b6001600160a01b038316600090815260208190526040902054611ac89083611730565b6001600160a01b039093166000908152602081905260409020929092555090565b6001600160a01b0382166000600080516020611da2833981519152611b0d84610a75565b60408051918252519081900360200190a36040805182815290516001600160a01b03841691600091600080516020611d3c8339815191529181900360200190a35050565b60006001600160a01b038316611bab576040805162461bcd60e51b815260206004820152601a6024820152794255524e5f46524f4d5f5448455f5a45524f5f4144445245535360301b604482015290519081900360640190fd5b6001600160a01b03831660009081526020819052604090205480831115611c17576040805162461bcd60e51b815260206004820152601b60248201527a4255524e5f414d4f554e545f455843454544535f42414c414e434560281b604482015290519081900360640190fd5b6000611c2284610a75565b9050611c3684611c30611234565b906112ec565b9250611c50600080516020611dc283398151915284611cd6565b611c5a82856112ec565b6001600160a01b038616600090815260208190526040812091909155611c7f85610a75565b604080518481526020810183905280820188905290519192506001600160a01b038816917f8b2a1e1ad5e0578c3dd82494156e985dade827a87c573b5c1c7716a32162ad649181900360600190a250505092915050565b905556fe5452414e534645525f414d4f554e545f455843454544535f414c4c4f57414e43455265656e7472616e637947756172643a207265656e7472616e742063616c6c004f70656e5374616b696e673a20666f7262696464656e000000000000000000009d9c909296d9c674451c0c24f02cb64981eb3b727f99865939192f880a755dcb4f70656e5374616b696e673a207468726573686f6c642074696d65206e6f74207265616368536166654d6174683a206d756c7469706c69636174696f6e206f766572666c6f77ddf252ad1be2c89b69c2b068fc378daa952ba7f163c4a11628f55a4df523b3ef9ff98c80df089d6bf6eb2fc8f6cbe78048a8bba7d3dcb13098800aa549e04459a2646970667358221220adc72dd2a8113bff981919bbda008d1cfd13fd0035bbce2653ffe704f0de325e64736f6c634300060c0033",
  "linkReferences": {},
  "deployedLinkReferences": {}
}