{
  "_format": "hh-sol-artifact-1",
  "contractName": "OpenStaking",
  "sourceName": "contracts/staking/OpenStaking.sol",
  "abi": [
    {
      "inputs": [
        {
          "internalType": "address",
          "name": "_depositToken",
          "type": "address"
        }
      ],
      "stateMutability": "nonpayable",
      "type": "constructor"
    },
    {
      "anonymous": false,
      "inputs": [
        {
          "indexed": true,
          "internalType": "address",
          "name": "owner",
          "type": "address"
        },
        {
          "indexed": true,
          "internalType": "address",
          "name": "spender",
          "type": "address"
        },
        {
          "indexed": false,
          "internalType": "uint256",
          "name": "value",
          "type": "uint256"
        }
      ],
      "name": "Approval",
      "type": "event"
    },
    {
      "anonymous": false,
      "inputs": [],
      "name": "Resumed",
      "type": "event"
    },
    {
      "anonymous": false,
      "inputs": [
        {
          "indexed": true,
          "internalType": "address",
          "name": "account",
          "type": "address"
        },
        {
          "indexed": false,
          "internalType": "uint256",
          "name": "preRebaseTokenAmount",
          "type": "uint256"
        },
        {
          "indexed": false,
          "internalType": "uint256",
          "name": "postRebaseTokenAmount",
          "type": "uint256"
        },
        {
          "indexed": false,
          "internalType": "uint256",
          "name": "sharesAmount",
          "type": "uint256"
        }
      ],
      "name": "SharesBurnt",
      "type": "event"
    },
    {
      "anonymous": false,
      "inputs": [],
      "name": "StakingLimitRemoved",
      "type": "event"
    },
    {
      "anonymous": false,
      "inputs": [
        {
          "indexed": false,
          "internalType": "uint256",
          "name": "maxStakeLimit",
          "type": "uint256"
        },
        {
          "indexed": false,
          "internalType": "uint256",
          "name": "stakeLimitIncreasePerBlock",
          "type": "uint256"
        }
      ],
      "name": "StakingLimitSet",
      "type": "event"
    },
    {
      "anonymous": false,
      "inputs": [],
      "name": "StakingPaused",
      "type": "event"
    },
    {
      "anonymous": false,
      "inputs": [],
      "name": "StakingResumed",
      "type": "event"
    },
    {
      "anonymous": false,
      "inputs": [],
      "name": "Stopped",
      "type": "event"
    },
    {
      "anonymous": false,
      "inputs": [
        {
          "indexed": true,
          "internalType": "address",
          "name": "sender",
          "type": "address"
        },
        {
          "indexed": false,
          "internalType": "uint256",
          "name": "amount",
          "type": "uint256"
        },
        {
          "indexed": false,
          "internalType": "address",
          "name": "referral",
          "type": "address"
        }
      ],
      "name": "Submitted",
      "type": "event"
    },
    {
      "anonymous": false,
      "inputs": [
        {
          "indexed": true,
          "internalType": "address",
          "name": "from",
          "type": "address"
        },
        {
          "indexed": true,
          "internalType": "address",
          "name": "to",
          "type": "address"
        },
        {
          "indexed": false,
          "internalType": "uint256",
          "name": "value",
          "type": "uint256"
        }
      ],
      "name": "Transfer",
      "type": "event"
    },
    {
      "anonymous": false,
      "inputs": [
        {
          "indexed": true,
          "internalType": "address",
          "name": "from",
          "type": "address"
        },
        {
          "indexed": true,
          "internalType": "address",
          "name": "to",
          "type": "address"
        },
        {
          "indexed": false,
          "internalType": "uint256",
          "name": "sharesValue",
          "type": "uint256"
        }
      ],
      "name": "TransferShares",
      "type": "event"
    },
    {
      "inputs": [],
      "name": "BURN_ROLE",
      "outputs": [
        {
          "internalType": "bytes32",
          "name": "",
          "type": "bytes32"
        }
      ],
      "stateMutability": "view",
      "type": "function"
    },
    {
      "inputs": [],
      "name": "PAUSE_ROLE",
      "outputs": [
        {
          "internalType": "bytes32",
          "name": "",
          "type": "bytes32"
        }
      ],
      "stateMutability": "view",
      "type": "function"
    },
    {
      "inputs": [],
      "name": "RESUME_ROLE",
      "outputs": [
        {
          "internalType": "bytes32",
          "name": "",
          "type": "bytes32"
        }
      ],
      "stateMutability": "view",
      "type": "function"
    },
    {
      "inputs": [],
      "name": "STAKING_CONTROL_ROLE",
      "outputs": [
        {
          "internalType": "bytes32",
          "name": "",
          "type": "bytes32"
        }
      ],
      "stateMutability": "view",
      "type": "function"
    },
    {
      "inputs": [],
      "name": "STAKING_PAUSE_ROLE",
      "outputs": [
        {
          "internalType": "bytes32",
          "name": "",
          "type": "bytes32"
        }
      ],
      "stateMutability": "view",
      "type": "function"
    },
    {
      "inputs": [
        {
          "internalType": "address",
          "name": "_owner",
          "type": "address"
        },
        {
          "internalType": "address",
          "name": "_spender",
          "type": "address"
        }
      ],
      "name": "allowance",
      "outputs": [
        {
          "internalType": "uint256",
          "name": "",
          "type": "uint256"
        }
      ],
      "stateMutability": "view",
      "type": "function"
    },
    {
      "inputs": [
        {
          "internalType": "address",
          "name": "_spender",
          "type": "address"
        },
        {
          "internalType": "uint256",
          "name": "_amount",
          "type": "uint256"
        }
      ],
      "name": "approve",
      "outputs": [
        {
          "internalType": "bool",
          "name": "",
          "type": "bool"
        }
      ],
      "stateMutability": "nonpayable",
      "type": "function"
    },
    {
      "inputs": [
        {
          "internalType": "address",
          "name": "_account",
          "type": "address"
        }
      ],
      "name": "balanceOf",
      "outputs": [
        {
          "internalType": "uint256",
          "name": "",
          "type": "uint256"
        }
      ],
      "stateMutability": "view",
      "type": "function"
    },
    {
      "inputs": [],
      "name": "decimals",
      "outputs": [
        {
          "internalType": "uint8",
          "name": "",
          "type": "uint8"
        }
      ],
      "stateMutability": "pure",
      "type": "function"
    },
    {
      "inputs": [
        {
          "internalType": "address",
          "name": "_spender",
          "type": "address"
        },
        {
          "internalType": "uint256",
          "name": "_subtractedValue",
          "type": "uint256"
        }
      ],
      "name": "decreaseAllowance",
      "outputs": [
        {
          "internalType": "bool",
          "name": "",
          "type": "bool"
        }
      ],
      "stateMutability": "nonpayable",
      "type": "function"
    },
    {
      "inputs": [],
      "name": "depositToken",
      "outputs": [
        {
          "internalType": "address",
          "name": "",
          "type": "address"
        }
      ],
      "stateMutability": "view",
      "type": "function"
    },
    {
      "inputs": [
        {
          "internalType": "address",
          "name": "_token",
          "type": "address"
        }
      ],
      "name": "emergencyWithdraw",
      "outputs": [],
      "stateMutability": "nonpayable",
      "type": "function"
    },
    {
      "inputs": [
        {
          "internalType": "uint256",
          "name": "_sharesAmount",
          "type": "uint256"
        }
      ],
      "name": "getPooledEthByShares",
      "outputs": [
        {
          "internalType": "uint256",
          "name": "",
          "type": "uint256"
        }
      ],
      "stateMutability": "view",
      "type": "function"
    },
    {
      "inputs": [
        {
          "internalType": "uint256",
          "name": "_ethAmount",
          "type": "uint256"
        }
      ],
      "name": "getSharesByPooledEth",
      "outputs": [
        {
          "internalType": "uint256",
          "name": "",
          "type": "uint256"
        }
      ],
      "stateMutability": "view",
      "type": "function"
    },
    {
      "inputs": [],
      "name": "getTotalPooledEther",
      "outputs": [
        {
          "internalType": "uint256",
          "name": "",
          "type": "uint256"
        }
      ],
      "stateMutability": "view",
      "type": "function"
    },
    {
      "inputs": [],
      "name": "getTotalShares",
      "outputs": [
        {
          "internalType": "uint256",
          "name": "",
          "type": "uint256"
        }
      ],
      "stateMutability": "view",
      "type": "function"
    },
    {
      "inputs": [
        {
          "internalType": "address",
          "name": "_spender",
          "type": "address"
        },
        {
          "internalType": "uint256",
          "name": "_addedValue",
          "type": "uint256"
        }
      ],
      "name": "increaseAllowance",
      "outputs": [
        {
          "internalType": "bool",
          "name": "",
          "type": "bool"
        }
      ],
      "stateMutability": "nonpayable",
      "type": "function"
    },
    {
      "inputs": [
        {
          "internalType": "address",
          "name": "",
          "type": "address"
        }
      ],
      "name": "lastClaimTimestamp",
      "outputs": [
        {
          "internalType": "uint256",
          "name": "",
          "type": "uint256"
        }
      ],
      "stateMutability": "view",
      "type": "function"
    },
    {
      "inputs": [],
      "name": "name",
      "outputs": [
        {
          "internalType": "string",
          "name": "",
          "type": "string"
        }
      ],
      "stateMutability": "pure",
      "type": "function"
    },
    {
      "inputs": [
        {
          "internalType": "address",
          "name": "",
          "type": "address"
        }
      ],
      "name": "operators",
      "outputs": [
        {
          "internalType": "bool",
          "name": "",
          "type": "bool"
        }
      ],
      "stateMutability": "view",
      "type": "function"
    },
    {
      "inputs": [
        {
          "internalType": "address",
          "name": "_account",
          "type": "address"
        }
      ],
      "name": "sharesOf",
      "outputs": [
        {
          "internalType": "uint256",
          "name": "",
          "type": "uint256"
        }
      ],
      "stateMutability": "view",
      "type": "function"
    },
    {
      "inputs": [
        {
          "internalType": "address",
          "name": "_referral",
          "type": "address"
        },
        {
          "internalType": "uint256",
          "name": "_amount",
          "type": "uint256"
        }
      ],
      "name": "submit",
      "outputs": [
        {
          "internalType": "uint256",
          "name": "",
          "type": "uint256"
        }
      ],
      "stateMutability": "nonpayable",
      "type": "function"
    },
    {
      "inputs": [],
      "name": "symbol",
      "outputs": [
        {
          "internalType": "string",
          "name": "",
          "type": "string"
        }
      ],
      "stateMutability": "pure",
      "type": "function"
    },
    {
      "inputs": [],
      "name": "totalSupply",
      "outputs": [
        {
          "internalType": "uint256",
          "name": "",
          "type": "uint256"
        }
      ],
      "stateMutability": "view",
      "type": "function"
    },
    {
      "inputs": [
        {
          "internalType": "address",
          "name": "_recipient",
          "type": "address"
        },
        {
          "internalType": "uint256",
          "name": "_amount",
          "type": "uint256"
        }
      ],
      "name": "transfer",
      "outputs": [
        {
          "internalType": "bool",
          "name": "",
          "type": "bool"
        }
      ],
      "stateMutability": "nonpayable",
      "type": "function"
    },
    {
      "inputs": [
        {
          "internalType": "address",
          "name": "_sender",
          "type": "address"
        },
        {
          "internalType": "address",
          "name": "_recipient",
          "type": "address"
        },
        {
          "internalType": "uint256",
          "name": "_amount",
          "type": "uint256"
        }
      ],
      "name": "transferFrom",
      "outputs": [
        {
          "internalType": "bool",
          "name": "",
          "type": "bool"
        }
      ],
      "stateMutability": "nonpayable",
      "type": "function"
    },
    {
      "inputs": [
        {
          "internalType": "address",
          "name": "_recipient",
          "type": "address"
        },
        {
          "internalType": "uint256",
          "name": "_sharesAmount",
          "type": "uint256"
        }
      ],
      "name": "transferShares",
      "outputs": [
        {
          "internalType": "uint256",
          "name": "",
          "type": "uint256"
        }
      ],
      "stateMutability": "nonpayable",
      "type": "function"
    },
    {
      "inputs": [],
      "name": "unstake",
      "outputs": [
        {
          "internalType": "uint256",
          "name": "",
          "type": "uint256"
        }
      ],
      "stateMutability": "nonpayable",
      "type": "function"
    }
  ],
  "bytecode": "0x608060405234801561001057600080fd5b506040516118163803806118168339818101604052602081101561003357600080fd5b505160016002819055600580546001600160a01b039093166001600160a01b031990931692909217909155336000908152600360205260409020805460ff1916909117905561178f806100876000396000f3fe608060405234801561001057600080fd5b50600436106101545760003560e01c806306fdde0314610159578063095ea7b3146101d6578063136dd43c1461021657806313e7c9d81461023057806318160ddd14610256578063192084511461025e578063203dd6661461027b57806323b872dd146102a75780632de03aa1146102dd5780632def6620146102e5578063313ce567146102ed57806337cfdaca14610256578063389ed2671461030b57806339509351146103135780636ff1c9bc1461033f57806370a08231146103675780637a28fb881461038d5780638fcb4e5b146103aa57806395d89b41146103d6578063a457c2d7146103de578063a9059cbb1461040a578063b930908f14610436578063bd9d518b1461043e578063c89039c514610464578063d5002f2e14610488578063dd62ed3e14610490578063eb85262f146104be578063f5eb42dc146104c6575b600080fd5b6101616104ec565b6040805160208082528351818301528351919283929083019185019080838360005b8381101561019b578181015183820152602001610183565b50505050905090810190601f1680156101c85780820380516001836020036101000a031916815260200191505b509250505060405180910390f35b610202600480360360408110156101ec57600080fd5b506001600160a01b038135169060200135610511565b604080519115158252519081900360200190f35b61021e610528565b60408051918252519081900360200190f35b6102026004803603602081101561024657600080fd5b50356001600160a01b031661054c565b61021e610561565b61021e6004803603602081101561027457600080fd5b5035610570565b61021e6004803603604081101561029157600080fd5b506001600160a01b0381351690602001356105b1565b610202600480360360608110156102bd57600080fd5b506001600160a01b03813581169160208101359091169060400135610612565b61021e61069f565b61021e6106c3565b6102f5610720565b6040805160ff9092168252519081900360200190f35b61021e610725565b6102026004803603604081101561032957600080fd5b506001600160a01b038135169060200135610749565b6103656004803603602081101561035557600080fd5b50356001600160a01b031661077f565b005b61021e6004803603602081101561037d57600080fd5b50356001600160a01b03166108e4565b61021e600480360360208110156103a357600080fd5b50356108f2565b61021e600480360360408110156103c057600080fd5b506001600160a01b03813516906020013561091d565b61016161099c565b610202600480360360408110156103f457600080fd5b506001600160a01b0381351690602001356109bc565b6102026004803603604081101561042057600080fd5b506001600160a01b038135169060200135610a4e565b61021e610a5b565b61021e6004803603602081101561045457600080fd5b50356001600160a01b0316610a7f565b61046c610a91565b604080516001600160a01b039092168252519081900360200190f35b61021e610aa0565b61021e600480360360408110156104a657600080fd5b506001600160a01b0381358116916020013516610aaa565b61021e610ad5565b61021e600480360360208110156104dc57600080fd5b50356001600160a01b0316610af9565b60408051808201909152600b81526a29ba30b5b2b21027b832b760a91b602082015290565b600061051e338484610b04565b5060015b92915050565b7fa42eee1333c0758ba72be38e728b6dadb32ea767de5b4ddbaea1dae85b1b051f81565b60036020526000908152604090205460ff1681565b600061056b610c12565b905090565b60008061057b610c12565b90508061058c5760009150506105ac565b6105a8816105a261059b610c8e565b8690610ca7565b90610d07565b9150505b919050565b60006002805414156105f8576040805162461bcd60e51b815260206004820152601f60248201526000805160206116b9833981519152604482015290519081900360640190fd5b600280556106068383610d46565b60016002559392505050565b6001600160a01b0383166000908152600160209081526040808320338452909152812054828110156106755760405162461bcd60e51b81526004018080602001828103825260218152602001806116986021913960400191505060405180910390fd5b610680858585610f6c565b610694853361068f8487610ffc565b610b04565b506001949350505050565b7f2fc10cc8ae19568712f7a176fb4978616a610650813c9d05326c34abb62749c781565b600060028054141561070a576040805162461bcd60e51b815260206004820152601f60248201526000805160206116b9833981519152604482015290519081900360640190fd5b6002805561071661103e565b9050600160025590565b601290565b7f139c2898040ef16910dc9f44dc697df79363da767d8bc92f2e310312b816e46d81565b3360008181526001602090815260408083206001600160a01b0387168452909152812054909161051e91859061068f90866110ed565b3360008181526003602052604090205460ff166107dc576040805162461bcd60e51b815260206004820152601660248201527527b832b729ba30b5b4b7339d103337b93134b23232b760511b604482015290519081900360640190fd5b816001600160a01b031663a9059cbb33846001600160a01b03166370a08231306040518263ffffffff1660e01b815260040180826001600160a01b0316815260200191505060206040518083038186803b15801561083957600080fd5b505afa15801561084d573d6000803e3d6000fd5b505050506040513d602081101561086357600080fd5b5051604080516001600160e01b031960e086901b1681526001600160a01b03909316600484015260248301919091525160448083019260209291908290030181600087803b1580156108b457600080fd5b505af11580156108c8573d6000803e3d6000fd5b505050506040513d60208110156108de57600080fd5b50505050565b60006105226108f283611145565b6000806108fd610c8e565b90508061090e5760009150506105ac565b6105a8816105a261059b610c12565b600061092a338484611160565b6040805183815290516001600160a01b0385169133916000805160206116d98339815191529181900360200190a36000610963836108f2565b6040805182815290519192506001600160a01b03861691339160008051602061171a833981519152919081900360200190a39392505050565b60408051808201909152600681526539ba27a822a760d11b602082015290565b3360009081526001602090815260408083206001600160a01b038616845290915281205482811015610a35576040805162461bcd60e51b815260206004820152601e60248201527f4445435245415345445f414c4c4f57414e43455f42454c4f575f5a45524f0000604482015290519081900360640190fd5b610a44338561068f8487610ffc565b5060019392505050565b600061051e338484610f6c565b7fe97b137254058bd94f28d2f3eb79e2d34074ffb488d042e3bc958e0a57d2fa2281565b60046020526000908152604090205481565b6005546001600160a01b031681565b600061056b610c8e565b6001600160a01b03918216600090815260016020908152604080832093909416825291909152205490565b7f84ea57490227bc2be925c684e2a367071d69890b629590198f4125a018eb1de881565b600061052282611145565b6001600160a01b038316610b5b576040805162461bcd60e51b8152602060048201526019602482015278415050524f56455f46524f4d5f5a45524f5f4144445245535360381b604482015290519081900360640190fd5b6001600160a01b038216610bb0576040805162461bcd60e51b8152602060048201526017602482015276415050524f56455f544f5f5a45524f5f4144445245535360481b604482015290519081900360640190fd5b6001600160a01b03808416600081815260016020908152604080832094871680845294825291829020859055815185815291517f8c5be1e5ebec7d5bd14f71427d1e84f3dd0314c0f7b2291e5b200ac8c7c3b9259281900390910190a3505050565b600554604080516370a0823160e01b815230600482015290516000926001600160a01b0316916370a08231916024808301926020929190829003018186803b158015610c5d57600080fd5b505afa158015610c71573d6000803e3d6000fd5b505050506040513d6020811015610c8757600080fd5b5051905090565b600061056b60008051602061173a8339815191526112de565b600082610cb657506000610522565b82820282848281610cc357fe5b0414610d005760405162461bcd60e51b81526004018080602001828103825260218152602001806116f96021913960400191505060405180910390fd5b9392505050565b6000610d0083836040518060400160405280601a815260200179536166654d6174683a206469766973696f6e206279207a65726f60301b8152506112e2565b60003382610d8a576040805162461bcd60e51b815260206004820152600c60248201526b16915493d7d1115413d4d25560a21b604482015290519081900360640190fd5b600554604080516370a0823160e01b81526001600160a01b0384811660048301529151869392909216916370a0823191602480820192602092909190829003018186803b158015610dda57600080fd5b505afa158015610dee573d6000803e3d6000fd5b505050506040513d6020811015610e0457600080fd5b50511015610e57576040805162461bcd60e51b815260206004820152601b60248201527a4f70656e5374616b696e673a2065786365656420616d6f756e747360281b604482015290519081900360640190fd5b6000610e6284610570565b600554604080516323b872dd60e01b81526001600160a01b0386811660048301523060248301526044820189905291519394509116916323b872dd916064808201926020929091908290030181600087803b158015610ec057600080fd5b505af1158015610ed4573d6000803e3d6000fd5b505050506040513d6020811015610eea57600080fd5b505080610ef45750825b610efe8282611384565b506001600160a01b03808316600081815260046020908152604091829020429055815188815293891690840152805191927f96a25c8ce0baabc1fdefd93e9ed25d8e092a3332f3aa9a41722b5697231d1d1a929081900390910190a2610f64828261144c565b949350505050565b6000610f7782610570565b9050610f84848483611160565b826001600160a01b0316846001600160a01b031660008051602061171a833981519152846040518082815260200191505060405180910390a3826001600160a01b0316846001600160a01b03166000805160206116d9833981519152836040518082815260200191505060405180910390a350505050565b6000610d0083836040518060400160405280601e81526020017f536166654d6174683a207375627472616374696f6e206f766572666c6f7700008152506114b4565b6000338161104b82610af9565b6005549091506001600160a01b031663a9059cbb83611069846108f2565b6040518363ffffffff1660e01b815260040180836001600160a01b0316815260200182815260200192505050602060405180830381600087803b1580156110af57600080fd5b505af11580156110c3573d6000803e3d6000fd5b505050506040513d60208110156110d957600080fd5b506110e69050828261150e565b9250505090565b600082820183811015610d00576040805162461bcd60e51b815260206004820152601b60248201527a536166654d6174683a206164646974696f6e206f766572666c6f7760281b604482015290519081900360640190fd5b6001600160a01b031660009081526020819052604090205490565b6001600160a01b0383166111bb576040805162461bcd60e51b815260206004820152601e60248201527f5452414e534645525f46524f4d5f5448455f5a45524f5f414444524553530000604482015290519081900360640190fd5b6001600160a01b038216611215576040805162461bcd60e51b815260206004820152601c60248201527b5452414e534645525f544f5f5448455f5a45524f5f4144445245535360201b604482015290519081900360640190fd5b6001600160a01b03831660009081526020819052604090205480821115611283576040805162461bcd60e51b815260206004820152601f60248201527f5452414e534645525f414d4f554e545f455843454544535f42414c414e434500604482015290519081900360640190fd5b61128d8183610ffc565b6001600160a01b0380861660009081526020819052604080822093909355908516815220546112bc90836110ed565b6001600160a01b03909316600090815260208190526040902092909255505050565b5490565b6000818361136e5760405162461bcd60e51b81526004018080602001828103825283818151815260200191508051906020019080838360005b8381101561133357818101518382015260200161131b565b50505050905090810190601f1680156113605780820380516001836020036101000a031916815260200191505b509250505060405180910390fd5b50600083858161137a57fe5b0495945050505050565b60006001600160a01b0383166113dc576040805162461bcd60e51b81526020600482015260186024820152774d494e545f544f5f5448455f5a45524f5f4144445245535360401b604482015290519081900360640190fd5b6113ee826113e8610c8e565b906110ed565b905061140860008051602061173a83398151915282611693565b6001600160a01b03831660009081526020819052604090205461142b90836110ed565b6001600160a01b039093166000908152602081905260409020929092555090565b6001600160a01b038216600060008051602061171a833981519152611470846108f2565b60408051918252519081900360200190a36040805182815290516001600160a01b038416916000916000805160206116d98339815191529181900360200190a35050565b600081848411156115065760405162461bcd60e51b815260206004820181815283516024840152835190928392604490910191908501908083836000831561133357818101518382015260200161131b565b505050900390565b60006001600160a01b038316611568576040805162461bcd60e51b815260206004820152601a6024820152794255524e5f46524f4d5f5448455f5a45524f5f4144445245535360301b604482015290519081900360640190fd5b6001600160a01b038316600090815260208190526040902054808311156115d4576040805162461bcd60e51b815260206004820152601b60248201527a4255524e5f414d4f554e545f455843454544535f42414c414e434560281b604482015290519081900360640190fd5b60006115df846108f2565b90506115f3846115ed610c8e565b90610ffc565b925061160d60008051602061173a83398151915284611693565b6116178285610ffc565b6001600160a01b03861660009081526020819052604081209190915561163c856108f2565b604080518481526020810183905280820188905290519192506001600160a01b038816917f8b2a1e1ad5e0578c3dd82494156e985dade827a87c573b5c1c7716a32162ad649181900360600190a250505092915050565b905556fe5452414e534645525f414d4f554e545f455843454544535f414c4c4f57414e43455265656e7472616e637947756172643a207265656e7472616e742063616c6c009d9c909296d9c674451c0c24f02cb64981eb3b727f99865939192f880a755dcb536166654d6174683a206d756c7469706c69636174696f6e206f766572666c6f77ddf252ad1be2c89b69c2b068fc378daa952ba7f163c4a11628f55a4df523b3ef9ff98c80df089d6bf6eb2fc8f6cbe78048a8bba7d3dcb13098800aa549e04459a2646970667358221220788e064617ea405d26136bff6fdaadf5e1038dc732e236649f07c504e309e2db64736f6c634300060c0033",
  "linkReferences": {},
  "deployedLinkReferences": {}
}