{
  "_format": "hh-sol-artifact-1",
  "contractName": "OpenStaking",
  "sourceName": "contracts/staking/OpenStaking.sol",
  "abi": [
    {
      "inputs": [
        {
          "internalType": "address",
          "name": "_depositToken",
          "type": "address"
        }
      ],
      "stateMutability": "nonpayable",
      "type": "constructor"
    },
    {
      "anonymous": false,
      "inputs": [
        {
          "indexed": true,
          "internalType": "address",
          "name": "owner",
          "type": "address"
        },
        {
          "indexed": true,
          "internalType": "address",
          "name": "spender",
          "type": "address"
        },
        {
          "indexed": false,
          "internalType": "uint256",
          "name": "value",
          "type": "uint256"
        }
      ],
      "name": "Approval",
      "type": "event"
    },
    {
      "anonymous": false,
      "inputs": [
        {
          "indexed": true,
          "internalType": "address",
          "name": "account",
          "type": "address"
        },
        {
          "indexed": false,
          "internalType": "uint256",
          "name": "preRebaseTokenAmount",
          "type": "uint256"
        },
        {
          "indexed": false,
          "internalType": "uint256",
          "name": "postRebaseTokenAmount",
          "type": "uint256"
        },
        {
          "indexed": false,
          "internalType": "uint256",
          "name": "sharesAmount",
          "type": "uint256"
        }
      ],
      "name": "SharesBurnt",
      "type": "event"
    },
    {
      "anonymous": false,
      "inputs": [
        {
          "indexed": true,
          "internalType": "address",
          "name": "sender",
          "type": "address"
        },
        {
          "indexed": false,
          "internalType": "uint256",
          "name": "amount",
          "type": "uint256"
        },
        {
          "indexed": false,
          "internalType": "address",
          "name": "referral",
          "type": "address"
        }
      ],
      "name": "Submitted",
      "type": "event"
    },
    {
      "anonymous": false,
      "inputs": [
        {
          "indexed": true,
          "internalType": "address",
          "name": "from",
          "type": "address"
        },
        {
          "indexed": true,
          "internalType": "address",
          "name": "to",
          "type": "address"
        },
        {
          "indexed": false,
          "internalType": "uint256",
          "name": "value",
          "type": "uint256"
        }
      ],
      "name": "Transfer",
      "type": "event"
    },
    {
      "anonymous": false,
      "inputs": [
        {
          "indexed": true,
          "internalType": "address",
          "name": "from",
          "type": "address"
        },
        {
          "indexed": true,
          "internalType": "address",
          "name": "to",
          "type": "address"
        },
        {
          "indexed": false,
          "internalType": "uint256",
          "name": "sharesValue",
          "type": "uint256"
        }
      ],
      "name": "TransferShares",
      "type": "event"
    },
    {
      "inputs": [
        {
          "internalType": "address",
          "name": "_owner",
          "type": "address"
        },
        {
          "internalType": "address",
          "name": "_spender",
          "type": "address"
        }
      ],
      "name": "allowance",
      "outputs": [
        {
          "internalType": "uint256",
          "name": "",
          "type": "uint256"
        }
      ],
      "stateMutability": "view",
      "type": "function"
    },
    {
      "inputs": [
        {
          "internalType": "address",
          "name": "_spender",
          "type": "address"
        },
        {
          "internalType": "uint256",
          "name": "_amount",
          "type": "uint256"
        }
      ],
      "name": "approve",
      "outputs": [
        {
          "internalType": "bool",
          "name": "",
          "type": "bool"
        }
      ],
      "stateMutability": "nonpayable",
      "type": "function"
    },
    {
      "inputs": [
        {
          "internalType": "address",
          "name": "_account",
          "type": "address"
        }
      ],
      "name": "balanceOf",
      "outputs": [
        {
          "internalType": "uint256",
          "name": "",
          "type": "uint256"
        }
      ],
      "stateMutability": "view",
      "type": "function"
    },
    {
      "inputs": [],
      "name": "decimals",
      "outputs": [
        {
          "internalType": "uint8",
          "name": "",
          "type": "uint8"
        }
      ],
      "stateMutability": "pure",
      "type": "function"
    },
    {
      "inputs": [
        {
          "internalType": "address",
          "name": "_spender",
          "type": "address"
        },
        {
          "internalType": "uint256",
          "name": "_subtractedValue",
          "type": "uint256"
        }
      ],
      "name": "decreaseAllowance",
      "outputs": [
        {
          "internalType": "bool",
          "name": "",
          "type": "bool"
        }
      ],
      "stateMutability": "nonpayable",
      "type": "function"
    },
    {
      "inputs": [],
      "name": "depositToken",
      "outputs": [
        {
          "internalType": "address",
          "name": "",
          "type": "address"
        }
      ],
      "stateMutability": "view",
      "type": "function"
    },
    {
      "inputs": [
        {
          "internalType": "address",
          "name": "_token",
          "type": "address"
        }
      ],
      "name": "emergencyWithdraw",
      "outputs": [],
      "stateMutability": "nonpayable",
      "type": "function"
    },
    {
      "inputs": [
        {
          "internalType": "uint256",
          "name": "_sharesAmount",
          "type": "uint256"
        }
      ],
      "name": "getPooledEthByShares",
      "outputs": [
        {
          "internalType": "uint256",
          "name": "",
          "type": "uint256"
        }
      ],
      "stateMutability": "view",
      "type": "function"
    },
    {
      "inputs": [
        {
          "internalType": "uint256",
          "name": "_ethAmount",
          "type": "uint256"
        }
      ],
      "name": "getSharesByPooledEth",
      "outputs": [
        {
          "internalType": "uint256",
          "name": "",
          "type": "uint256"
        }
      ],
      "stateMutability": "view",
      "type": "function"
    },
    {
      "inputs": [
        {
          "internalType": "address",
          "name": "_account",
          "type": "address"
        }
      ],
      "name": "getStakedAmount",
      "outputs": [
        {
          "internalType": "uint256",
          "name": "",
          "type": "uint256"
        }
      ],
      "stateMutability": "view",
      "type": "function"
    },
    {
      "inputs": [],
      "name": "getTotalPooledEther",
      "outputs": [
        {
          "internalType": "uint256",
          "name": "",
          "type": "uint256"
        }
      ],
      "stateMutability": "view",
      "type": "function"
    },
    {
      "inputs": [],
      "name": "getTotalShares",
      "outputs": [
        {
          "internalType": "uint256",
          "name": "",
          "type": "uint256"
        }
      ],
      "stateMutability": "view",
      "type": "function"
    },
    {
      "inputs": [
        {
          "internalType": "address",
          "name": "_spender",
          "type": "address"
        },
        {
          "internalType": "uint256",
          "name": "_addedValue",
          "type": "uint256"
        }
      ],
      "name": "increaseAllowance",
      "outputs": [
        {
          "internalType": "bool",
          "name": "",
          "type": "bool"
        }
      ],
      "stateMutability": "nonpayable",
      "type": "function"
    },
    {
      "inputs": [
        {
          "internalType": "address",
          "name": "",
          "type": "address"
        }
      ],
      "name": "lastClaimTimestamp",
      "outputs": [
        {
          "internalType": "uint256",
          "name": "",
          "type": "uint256"
        }
      ],
      "stateMutability": "view",
      "type": "function"
    },
    {
      "inputs": [],
      "name": "name",
      "outputs": [
        {
          "internalType": "string",
          "name": "",
          "type": "string"
        }
      ],
      "stateMutability": "pure",
      "type": "function"
    },
    {
      "inputs": [
        {
          "internalType": "address",
          "name": "",
          "type": "address"
        }
      ],
      "name": "operators",
      "outputs": [
        {
          "internalType": "bool",
          "name": "",
          "type": "bool"
        }
      ],
      "stateMutability": "view",
      "type": "function"
    },
    {
      "inputs": [
        {
          "internalType": "address",
          "name": "_account",
          "type": "address"
        }
      ],
      "name": "sharesOf",
      "outputs": [
        {
          "internalType": "uint256",
          "name": "",
          "type": "uint256"
        }
      ],
      "stateMutability": "view",
      "type": "function"
    },
    {
      "inputs": [
        {
          "internalType": "address",
          "name": "",
          "type": "address"
        }
      ],
      "name": "stakedAmounts",
      "outputs": [
        {
          "internalType": "uint256",
          "name": "",
          "type": "uint256"
        }
      ],
      "stateMutability": "view",
      "type": "function"
    },
    {
      "inputs": [
        {
          "internalType": "address",
          "name": "_referral",
          "type": "address"
        },
        {
          "internalType": "uint256",
          "name": "_amount",
          "type": "uint256"
        }
      ],
      "name": "submit",
      "outputs": [
        {
          "internalType": "uint256",
          "name": "",
          "type": "uint256"
        }
      ],
      "stateMutability": "nonpayable",
      "type": "function"
    },
    {
      "inputs": [],
      "name": "symbol",
      "outputs": [
        {
          "internalType": "string",
          "name": "",
          "type": "string"
        }
      ],
      "stateMutability": "pure",
      "type": "function"
    },
    {
      "inputs": [],
      "name": "totalSupply",
      "outputs": [
        {
          "internalType": "uint256",
          "name": "",
          "type": "uint256"
        }
      ],
      "stateMutability": "view",
      "type": "function"
    },
    {
      "inputs": [
        {
          "internalType": "address",
          "name": "_recipient",
          "type": "address"
        },
        {
          "internalType": "uint256",
          "name": "_amount",
          "type": "uint256"
        }
      ],
      "name": "transfer",
      "outputs": [
        {
          "internalType": "bool",
          "name": "",
          "type": "bool"
        }
      ],
      "stateMutability": "nonpayable",
      "type": "function"
    },
    {
      "inputs": [
        {
          "internalType": "address",
          "name": "_sender",
          "type": "address"
        },
        {
          "internalType": "address",
          "name": "_recipient",
          "type": "address"
        },
        {
          "internalType": "uint256",
          "name": "_amount",
          "type": "uint256"
        }
      ],
      "name": "transferFrom",
      "outputs": [
        {
          "internalType": "bool",
          "name": "",
          "type": "bool"
        }
      ],
      "stateMutability": "nonpayable",
      "type": "function"
    },
    {
      "inputs": [
        {
          "internalType": "address",
          "name": "_recipient",
          "type": "address"
        },
        {
          "internalType": "uint256",
          "name": "_sharesAmount",
          "type": "uint256"
        }
      ],
      "name": "transferShares",
      "outputs": [
        {
          "internalType": "uint256",
          "name": "",
          "type": "uint256"
        }
      ],
      "stateMutability": "nonpayable",
      "type": "function"
    },
    {
      "inputs": [],
      "name": "unstake",
      "outputs": [
        {
          "internalType": "uint256",
          "name": "",
          "type": "uint256"
        }
      ],
      "stateMutability": "nonpayable",
      "type": "function"
    }
  ],
  "bytecode": "0x608060405234801561001057600080fd5b506040516117c23803806117c28339818101604052602081101561003357600080fd5b505160016002819055600680546001600160a01b039093166001600160a01b031990931692909217909155336000908152600360205260409020805460ff1916909117905561173b806100876000396000f3fe608060405234801561001057600080fd5b50600436106101335760003560e01c806306fdde0314610138578063095ea7b3146101b557806310c1c103146101f557806313e7c9d81461022d57806318160ddd14610253578063192084511461025b578063203dd6661461027857806323b872dd146102a45780632def6620146102da578063313ce567146102e257806337cfdaca1461025357806339509351146103005780634da6a5561461032c5780636ff1c9bc1461035257806370a082311461037a5780637a28fb88146103a05780638fcb4e5b146103bd57806395d89b41146103e9578063a457c2d7146103f1578063a9059cbb1461041d578063bd9d518b14610449578063c89039c51461046f578063d5002f2e14610493578063dd62ed3e1461049b578063f5eb42dc146104c9575b600080fd5b6101406104ef565b6040805160208082528351818301528351919283929083019185019080838360005b8381101561017a578181015183820152602001610162565b50505050905090810190601f1680156101a75780820380516001836020036101000a031916815260200191505b509250505060405180910390f35b6101e1600480360360408110156101cb57600080fd5b506001600160a01b038135169060200135610514565b604080519115158252519081900360200190f35b61021b6004803603602081101561020b57600080fd5b50356001600160a01b031661052b565b60408051918252519081900360200190f35b6101e16004803603602081101561024357600080fd5b50356001600160a01b031661053d565b61021b610552565b61021b6004803603602081101561027157600080fd5b5035610561565b61021b6004803603604081101561028e57600080fd5b506001600160a01b0381351690602001356105a2565b6101e1600480360360608110156102ba57600080fd5b506001600160a01b03813581169160208101359091169060400135610603565b61021b610690565b6102ea6106ed565b6040805160ff9092168252519081900360200190f35b6101e16004803603604081101561031657600080fd5b506001600160a01b0381351690602001356106f2565b61021b6004803603602081101561034257600080fd5b50356001600160a01b0316610728565b6103786004803603602081101561036857600080fd5b50356001600160a01b0316610743565b005b61021b6004803603602081101561039057600080fd5b50356001600160a01b03166108a8565b61021b600480360360208110156103b657600080fd5b50356108b6565b61021b600480360360408110156103d357600080fd5b506001600160a01b0381351690602001356108e1565b610140610960565b6101e16004803603604081101561040757600080fd5b506001600160a01b038135169060200135610980565b6101e16004803603604081101561043357600080fd5b506001600160a01b038135169060200135610a12565b61021b6004803603602081101561045f57600080fd5b50356001600160a01b0316610a1f565b610477610a31565b604080516001600160a01b039092168252519081900360200190f35b61021b610a40565b61021b600480360360408110156104b157600080fd5b506001600160a01b0381358116916020013516610a4a565b61021b600480360360208110156104df57600080fd5b50356001600160a01b0316610a75565b60408051808201909152600b81526a29ba30b5b2b21027b832b760a91b602082015290565b6000610521338484610a80565b5060015b92915050565b60056020526000908152604090205481565b60036020526000908152604090205460ff1681565b600061055c610b8e565b905090565b60008061056c610b8e565b90508061057d57600091505061059d565b6105998161059361058c610c0a565b8690610c23565b90610c83565b9150505b919050565b60006002805414156105e9576040805162461bcd60e51b815260206004820152601f6024820152600080516020611665833981519152604482015290519081900360640190fd5b600280556105f78383610cc2565b60016002559392505050565b6001600160a01b0383166000908152600160209081526040808320338452909152812054828110156106665760405162461bcd60e51b81526004018080602001828103825260218152602001806116446021913960400191505060405180910390fd5b610671858585610f06565b61068585336106808487610f96565b610a80565b506001949350505050565b60006002805414156106d7576040805162461bcd60e51b815260206004820152601f6024820152600080516020611665833981519152604482015290519081900360640190fd5b600280556106e3610fd8565b9050600160025590565b601290565b3360008181526001602090815260408083206001600160a01b038716845290915281205490916105219185906106809086611099565b6001600160a01b031660009081526005602052604090205490565b3360008181526003602052604090205460ff166107a0576040805162461bcd60e51b815260206004820152601660248201527527b832b729ba30b5b4b7339d103337b93134b23232b760511b604482015290519081900360640190fd5b816001600160a01b031663a9059cbb33846001600160a01b03166370a08231306040518263ffffffff1660e01b815260040180826001600160a01b0316815260200191505060206040518083038186803b1580156107fd57600080fd5b505afa158015610811573d6000803e3d6000fd5b505050506040513d602081101561082757600080fd5b5051604080516001600160e01b031960e086901b1681526001600160a01b03909316600484015260248301919091525160448083019260209291908290030181600087803b15801561087857600080fd5b505af115801561088c573d6000803e3d6000fd5b505050506040513d60208110156108a257600080fd5b50505050565b60006105256108b6836110f1565b6000806108c1610c0a565b9050806108d257600091505061059d565b6105998161059361058c610b8e565b60006108ee33848461110c565b6040805183815290516001600160a01b0385169133916000805160206116858339815191529181900360200190a36000610927836108b6565b6040805182815290519192506001600160a01b0386169133916000805160206116c6833981519152919081900360200190a39392505050565b60408051808201909152600681526539ba27a822a760d11b602082015290565b3360009081526001602090815260408083206001600160a01b0386168452909152812054828110156109f9576040805162461bcd60e51b815260206004820152601e60248201527f4445435245415345445f414c4c4f57414e43455f42454c4f575f5a45524f0000604482015290519081900360640190fd5b610a0833856106808487610f96565b5060019392505050565b6000610521338484610f06565b60046020526000908152604090205481565b6006546001600160a01b031681565b600061055c610c0a565b6001600160a01b03918216600090815260016020908152604080832093909416825291909152205490565b6000610525826110f1565b6001600160a01b038316610ad7576040805162461bcd60e51b8152602060048201526019602482015278415050524f56455f46524f4d5f5a45524f5f4144445245535360381b604482015290519081900360640190fd5b6001600160a01b038216610b2c576040805162461bcd60e51b8152602060048201526017602482015276415050524f56455f544f5f5a45524f5f4144445245535360481b604482015290519081900360640190fd5b6001600160a01b03808416600081815260016020908152604080832094871680845294825291829020859055815185815291517f8c5be1e5ebec7d5bd14f71427d1e84f3dd0314c0f7b2291e5b200ac8c7c3b9259281900390910190a3505050565b600654604080516370a0823160e01b815230600482015290516000926001600160a01b0316916370a08231916024808301926020929190829003018186803b158015610bd957600080fd5b505afa158015610bed573d6000803e3d6000fd5b505050506040513d6020811015610c0357600080fd5b5051905090565b600061055c6000805160206116e683398151915261128a565b600082610c3257506000610525565b82820282848281610c3f57fe5b0414610c7c5760405162461bcd60e51b81526004018080602001828103825260218152602001806116a56021913960400191505060405180910390fd5b9392505050565b6000610c7c83836040518060400160405280601a815260200179536166654d6174683a206469766973696f6e206279207a65726f60301b81525061128e565b60003382610d06576040805162461bcd60e51b815260206004820152600c60248201526b16915493d7d1115413d4d25560a21b604482015290519081900360640190fd5b600654604080516370a0823160e01b81526001600160a01b0384811660048301529151869392909216916370a0823191602480820192602092909190829003018186803b158015610d5657600080fd5b505afa158015610d6a573d6000803e3d6000fd5b505050506040513d6020811015610d8057600080fd5b50511015610dd3576040805162461bcd60e51b815260206004820152601b60248201527a4f70656e5374616b696e673a2065786365656420616d6f756e747360281b604482015290519081900360640190fd5b6000610dde84610561565b600654604080516323b872dd60e01b81526001600160a01b0386811660048301523060248301526044820189905291519394509116916323b872dd916064808201926020929091908290030181600087803b158015610e3c57600080fd5b505af1158015610e50573d6000803e3d6000fd5b505050506040513d6020811015610e6657600080fd5b50506001600160a01b038216600090815260056020526040902080548501905580610e8e5750825b610e988282611330565b506001600160a01b03808316600081815260046020908152604091829020429055815188815293891690840152805191927f96a25c8ce0baabc1fdefd93e9ed25d8e092a3332f3aa9a41722b5697231d1d1a929081900390910190a2610efe82826113f8565b949350505050565b6000610f1182610561565b9050610f1e84848361110c565b826001600160a01b0316846001600160a01b03166000805160206116c6833981519152846040518082815260200191505060405180910390a3826001600160a01b0316846001600160a01b0316600080516020611685833981519152836040518082815260200191505060405180910390a350505050565b6000610c7c83836040518060400160405280601e81526020017f536166654d6174683a207375627472616374696f6e206f766572666c6f770000815250611460565b60003381610fe582610a75565b6001600160a01b038084166000908152600560205260408120556006549192501663a9059cbb83611015846108b6565b6040518363ffffffff1660e01b815260040180836001600160a01b0316815260200182815260200192505050602060405180830381600087803b15801561105b57600080fd5b505af115801561106f573d6000803e3d6000fd5b505050506040513d602081101561108557600080fd5b50611092905082826114ba565b9250505090565b600082820183811015610c7c576040805162461bcd60e51b815260206004820152601b60248201527a536166654d6174683a206164646974696f6e206f766572666c6f7760281b604482015290519081900360640190fd5b6001600160a01b031660009081526020819052604090205490565b6001600160a01b038316611167576040805162461bcd60e51b815260206004820152601e60248201527f5452414e534645525f46524f4d5f5448455f5a45524f5f414444524553530000604482015290519081900360640190fd5b6001600160a01b0382166111c1576040805162461bcd60e51b815260206004820152601c60248201527b5452414e534645525f544f5f5448455f5a45524f5f4144445245535360201b604482015290519081900360640190fd5b6001600160a01b0383166000908152602081905260409020548082111561122f576040805162461bcd60e51b815260206004820152601f60248201527f5452414e534645525f414d4f554e545f455843454544535f42414c414e434500604482015290519081900360640190fd5b6112398183610f96565b6001600160a01b0380861660009081526020819052604080822093909355908516815220546112689083611099565b6001600160a01b03909316600090815260208190526040902092909255505050565b5490565b6000818361131a5760405162461bcd60e51b81526004018080602001828103825283818151815260200191508051906020019080838360005b838110156112df5781810151838201526020016112c7565b50505050905090810190601f16801561130c5780820380516001836020036101000a031916815260200191505b509250505060405180910390fd5b50600083858161132657fe5b0495945050505050565b60006001600160a01b038316611388576040805162461bcd60e51b81526020600482015260186024820152774d494e545f544f5f5448455f5a45524f5f4144445245535360401b604482015290519081900360640190fd5b61139a82611394610c0a565b90611099565b90506113b46000805160206116e68339815191528261163f565b6001600160a01b0383166000908152602081905260409020546113d79083611099565b6001600160a01b039093166000908152602081905260409020929092555090565b6001600160a01b03821660006000805160206116c683398151915261141c846108b6565b60408051918252519081900360200190a36040805182815290516001600160a01b038416916000916000805160206116858339815191529181900360200190a35050565b600081848411156114b25760405162461bcd60e51b81526020600482018181528351602484015283519092839260449091019190850190808383600083156112df5781810151838201526020016112c7565b505050900390565b60006001600160a01b038316611514576040805162461bcd60e51b815260206004820152601a6024820152794255524e5f46524f4d5f5448455f5a45524f5f4144445245535360301b604482015290519081900360640190fd5b6001600160a01b03831660009081526020819052604090205480831115611580576040805162461bcd60e51b815260206004820152601b60248201527a4255524e5f414d4f554e545f455843454544535f42414c414e434560281b604482015290519081900360640190fd5b600061158b846108b6565b905061159f84611599610c0a565b90610f96565b92506115b96000805160206116e68339815191528461163f565b6115c38285610f96565b6001600160a01b0386166000908152602081905260408120919091556115e8856108b6565b604080518481526020810183905280820188905290519192506001600160a01b038816917f8b2a1e1ad5e0578c3dd82494156e985dade827a87c573b5c1c7716a32162ad649181900360600190a250505092915050565b905556fe5452414e534645525f414d4f554e545f455843454544535f414c4c4f57414e43455265656e7472616e637947756172643a207265656e7472616e742063616c6c009d9c909296d9c674451c0c24f02cb64981eb3b727f99865939192f880a755dcb536166654d6174683a206d756c7469706c69636174696f6e206f766572666c6f77ddf252ad1be2c89b69c2b068fc378daa952ba7f163c4a11628f55a4df523b3ef9ff98c80df089d6bf6eb2fc8f6cbe78048a8bba7d3dcb13098800aa549e04459a2646970667358221220726f10e5403f4c3133ee75b826f3d5435bedf090b7dd5290581fbea44bdb050b64736f6c634300060c0033",
  "linkReferences": {},
  "deployedLinkReferences": {}
}