{
  "_format": "hh-sol-artifact-1",
  "contractName": "OpenStaking",
  "sourceName": "contracts/staking/OpenStaking.sol",
  "abi": [
    {
      "inputs": [
        {
          "internalType": "address",
          "name": "_depositToken",
          "type": "address"
        }
      ],
      "stateMutability": "nonpayable",
      "type": "constructor"
    },
    {
      "anonymous": false,
      "inputs": [
        {
          "indexed": true,
          "internalType": "address",
          "name": "owner",
          "type": "address"
        },
        {
          "indexed": true,
          "internalType": "address",
          "name": "spender",
          "type": "address"
        },
        {
          "indexed": false,
          "internalType": "uint256",
          "name": "value",
          "type": "uint256"
        }
      ],
      "name": "Approval",
      "type": "event"
    },
    {
      "anonymous": false,
      "inputs": [
        {
          "indexed": true,
          "internalType": "address",
          "name": "account",
          "type": "address"
        },
        {
          "indexed": false,
          "internalType": "uint256",
          "name": "preRebaseTokenAmount",
          "type": "uint256"
        },
        {
          "indexed": false,
          "internalType": "uint256",
          "name": "postRebaseTokenAmount",
          "type": "uint256"
        },
        {
          "indexed": false,
          "internalType": "uint256",
          "name": "sharesAmount",
          "type": "uint256"
        }
      ],
      "name": "SharesBurnt",
      "type": "event"
    },
    {
      "anonymous": false,
      "inputs": [
        {
          "indexed": true,
          "internalType": "address",
          "name": "sender",
          "type": "address"
        },
        {
          "indexed": false,
          "internalType": "uint256",
          "name": "amount",
          "type": "uint256"
        },
        {
          "indexed": false,
          "internalType": "address",
          "name": "referral",
          "type": "address"
        }
      ],
      "name": "Submitted",
      "type": "event"
    },
    {
      "anonymous": false,
      "inputs": [
        {
          "indexed": true,
          "internalType": "address",
          "name": "from",
          "type": "address"
        },
        {
          "indexed": true,
          "internalType": "address",
          "name": "to",
          "type": "address"
        },
        {
          "indexed": false,
          "internalType": "uint256",
          "name": "value",
          "type": "uint256"
        }
      ],
      "name": "Transfer",
      "type": "event"
    },
    {
      "anonymous": false,
      "inputs": [
        {
          "indexed": true,
          "internalType": "address",
          "name": "from",
          "type": "address"
        },
        {
          "indexed": true,
          "internalType": "address",
          "name": "to",
          "type": "address"
        },
        {
          "indexed": false,
          "internalType": "uint256",
          "name": "sharesValue",
          "type": "uint256"
        }
      ],
      "name": "TransferShares",
      "type": "event"
    },
    {
      "inputs": [
        {
          "internalType": "address",
          "name": "_owner",
          "type": "address"
        },
        {
          "internalType": "address",
          "name": "_spender",
          "type": "address"
        }
      ],
      "name": "allowance",
      "outputs": [
        {
          "internalType": "uint256",
          "name": "",
          "type": "uint256"
        }
      ],
      "stateMutability": "view",
      "type": "function"
    },
    {
      "inputs": [
        {
          "internalType": "address",
          "name": "_spender",
          "type": "address"
        },
        {
          "internalType": "uint256",
          "name": "_amount",
          "type": "uint256"
        }
      ],
      "name": "approve",
      "outputs": [
        {
          "internalType": "bool",
          "name": "",
          "type": "bool"
        }
      ],
      "stateMutability": "nonpayable",
      "type": "function"
    },
    {
      "inputs": [
        {
          "internalType": "address",
          "name": "_account",
          "type": "address"
        }
      ],
      "name": "balanceOf",
      "outputs": [
        {
          "internalType": "uint256",
          "name": "",
          "type": "uint256"
        }
      ],
      "stateMutability": "view",
      "type": "function"
    },
    {
      "inputs": [],
      "name": "decimals",
      "outputs": [
        {
          "internalType": "uint8",
          "name": "",
          "type": "uint8"
        }
      ],
      "stateMutability": "pure",
      "type": "function"
    },
    {
      "inputs": [
        {
          "internalType": "address",
          "name": "_spender",
          "type": "address"
        },
        {
          "internalType": "uint256",
          "name": "_subtractedValue",
          "type": "uint256"
        }
      ],
      "name": "decreaseAllowance",
      "outputs": [
        {
          "internalType": "bool",
          "name": "",
          "type": "bool"
        }
      ],
      "stateMutability": "nonpayable",
      "type": "function"
    },
    {
      "inputs": [],
      "name": "depositToken",
      "outputs": [
        {
          "internalType": "address",
          "name": "",
          "type": "address"
        }
      ],
      "stateMutability": "view",
      "type": "function"
    },
    {
      "inputs": [
        {
          "internalType": "address",
          "name": "_token",
          "type": "address"
        }
      ],
      "name": "emergencyWithdraw",
      "outputs": [],
      "stateMutability": "nonpayable",
      "type": "function"
    },
    {
      "inputs": [
        {
          "internalType": "uint256",
          "name": "_sharesAmount",
          "type": "uint256"
        }
      ],
      "name": "getPooledEthByShares",
      "outputs": [
        {
          "internalType": "uint256",
          "name": "",
          "type": "uint256"
        }
      ],
      "stateMutability": "view",
      "type": "function"
    },
    {
      "inputs": [
        {
          "internalType": "uint256",
          "name": "_ethAmount",
          "type": "uint256"
        }
      ],
      "name": "getSharesByPooledEth",
      "outputs": [
        {
          "internalType": "uint256",
          "name": "",
          "type": "uint256"
        }
      ],
      "stateMutability": "view",
      "type": "function"
    },
    {
      "inputs": [
        {
          "internalType": "address",
          "name": "_account",
          "type": "address"
        }
      ],
      "name": "getStakeInfo",
      "outputs": [
        {
          "internalType": "uint256[]",
          "name": "",
          "type": "uint256[]"
        }
      ],
      "stateMutability": "view",
      "type": "function"
    },
    {
      "inputs": [
        {
          "internalType": "address",
          "name": "_account",
          "type": "address"
        }
      ],
      "name": "getStakedAmount",
      "outputs": [
        {
          "internalType": "uint256",
          "name": "",
          "type": "uint256"
        }
      ],
      "stateMutability": "view",
      "type": "function"
    },
    {
      "inputs": [],
      "name": "getTotalPooledEther",
      "outputs": [
        {
          "internalType": "uint256",
          "name": "",
          "type": "uint256"
        }
      ],
      "stateMutability": "view",
      "type": "function"
    },
    {
      "inputs": [],
      "name": "getTotalShares",
      "outputs": [
        {
          "internalType": "uint256",
          "name": "",
          "type": "uint256"
        }
      ],
      "stateMutability": "view",
      "type": "function"
    },
    {
      "inputs": [
        {
          "internalType": "address",
          "name": "_spender",
          "type": "address"
        },
        {
          "internalType": "uint256",
          "name": "_addedValue",
          "type": "uint256"
        }
      ],
      "name": "increaseAllowance",
      "outputs": [
        {
          "internalType": "bool",
          "name": "",
          "type": "bool"
        }
      ],
      "stateMutability": "nonpayable",
      "type": "function"
    },
    {
      "inputs": [
        {
          "internalType": "address",
          "name": "",
          "type": "address"
        }
      ],
      "name": "lastClaimTimestamp",
      "outputs": [
        {
          "internalType": "uint256",
          "name": "",
          "type": "uint256"
        }
      ],
      "stateMutability": "view",
      "type": "function"
    },
    {
      "inputs": [],
      "name": "name",
      "outputs": [
        {
          "internalType": "string",
          "name": "",
          "type": "string"
        }
      ],
      "stateMutability": "pure",
      "type": "function"
    },
    {
      "inputs": [
        {
          "internalType": "address",
          "name": "",
          "type": "address"
        }
      ],
      "name": "operators",
      "outputs": [
        {
          "internalType": "bool",
          "name": "",
          "type": "bool"
        }
      ],
      "stateMutability": "view",
      "type": "function"
    },
    {
      "inputs": [
        {
          "internalType": "address",
          "name": "_account",
          "type": "address"
        }
      ],
      "name": "sharesOf",
      "outputs": [
        {
          "internalType": "uint256",
          "name": "",
          "type": "uint256"
        }
      ],
      "stateMutability": "view",
      "type": "function"
    },
    {
      "inputs": [
        {
          "internalType": "address",
          "name": "",
          "type": "address"
        }
      ],
      "name": "stakedAmounts",
      "outputs": [
        {
          "internalType": "uint256",
          "name": "",
          "type": "uint256"
        }
      ],
      "stateMutability": "view",
      "type": "function"
    },
    {
      "inputs": [
        {
          "internalType": "address",
          "name": "_referral",
          "type": "address"
        },
        {
          "internalType": "uint256",
          "name": "_amount",
          "type": "uint256"
        }
      ],
      "name": "submit",
      "outputs": [
        {
          "internalType": "uint256",
          "name": "",
          "type": "uint256"
        }
      ],
      "stateMutability": "nonpayable",
      "type": "function"
    },
    {
      "inputs": [],
      "name": "symbol",
      "outputs": [
        {
          "internalType": "string",
          "name": "",
          "type": "string"
        }
      ],
      "stateMutability": "pure",
      "type": "function"
    },
    {
      "inputs": [],
      "name": "totalSupply",
      "outputs": [
        {
          "internalType": "uint256",
          "name": "",
          "type": "uint256"
        }
      ],
      "stateMutability": "view",
      "type": "function"
    },
    {
      "inputs": [
        {
          "internalType": "address",
          "name": "_recipient",
          "type": "address"
        },
        {
          "internalType": "uint256",
          "name": "_amount",
          "type": "uint256"
        }
      ],
      "name": "transfer",
      "outputs": [
        {
          "internalType": "bool",
          "name": "",
          "type": "bool"
        }
      ],
      "stateMutability": "nonpayable",
      "type": "function"
    },
    {
      "inputs": [
        {
          "internalType": "address",
          "name": "_sender",
          "type": "address"
        },
        {
          "internalType": "address",
          "name": "_recipient",
          "type": "address"
        },
        {
          "internalType": "uint256",
          "name": "_amount",
          "type": "uint256"
        }
      ],
      "name": "transferFrom",
      "outputs": [
        {
          "internalType": "bool",
          "name": "",
          "type": "bool"
        }
      ],
      "stateMutability": "nonpayable",
      "type": "function"
    },
    {
      "inputs": [
        {
          "internalType": "address",
          "name": "_recipient",
          "type": "address"
        },
        {
          "internalType": "uint256",
          "name": "_sharesAmount",
          "type": "uint256"
        }
      ],
      "name": "transferShares",
      "outputs": [
        {
          "internalType": "uint256",
          "name": "",
          "type": "uint256"
        }
      ],
      "stateMutability": "nonpayable",
      "type": "function"
    },
    {
      "inputs": [],
      "name": "unstake",
      "outputs": [
        {
          "internalType": "uint256",
          "name": "",
          "type": "uint256"
        }
      ],
      "stateMutability": "nonpayable",
      "type": "function"
    }
  ],
  "bytecode": "0x608060405234801561001057600080fd5b506040516119163803806119168339818101604052602081101561003357600080fd5b505160016002819055600680546001600160a01b039093166001600160a01b031990931692909217909155336000908152600360205260409020805460ff1916909117905561188f806100876000396000f3fe608060405234801561001057600080fd5b506004361061013e5760003560e01c806306fdde0314610143578063095ea7b3146101c057806310c1c1031461020057806313e7c9d81461023857806318160ddd1461025e5780631920845114610266578063203dd6661461028357806323b872dd146102af5780632def6620146102e5578063313ce567146102ed57806337cfdaca1461025e578063395093511461030b5780634da6a556146103375780636ff1c9bc1461035d57806370a08231146103855780637a28fb88146103ab5780638fcb4e5b146103c857806395d89b41146103f4578063a457c2d7146103fc578063a9059cbb14610428578063bd9d518b14610454578063c34531531461047a578063c89039c5146104f0578063d5002f2e14610514578063dd62ed3e1461051c578063f5eb42dc1461054a575b600080fd5b61014b610570565b6040805160208082528351818301528351919283929083019185019080838360005b8381101561018557818101518382015260200161016d565b50505050905090810190601f1680156101b25780820380516001836020036101000a031916815260200191505b509250505060405180910390f35b6101ec600480360360408110156101d657600080fd5b506001600160a01b038135169060200135610595565b604080519115158252519081900360200190f35b6102266004803603602081101561021657600080fd5b50356001600160a01b03166105ac565b60408051918252519081900360200190f35b6101ec6004803603602081101561024e57600080fd5b50356001600160a01b03166105be565b6102266105d3565b6102266004803603602081101561027c57600080fd5b50356105e2565b6102266004803603604081101561029957600080fd5b506001600160a01b038135169060200135610623565b6101ec600480360360608110156102c557600080fd5b506001600160a01b03813581169160208101359091169060400135610684565b610226610711565b6102f561076e565b6040805160ff9092168252519081900360200190f35b6101ec6004803603604081101561032157600080fd5b506001600160a01b038135169060200135610773565b6102266004803603602081101561034d57600080fd5b50356001600160a01b03166107a9565b6103836004803603602081101561037357600080fd5b50356001600160a01b03166107c4565b005b6102266004803603602081101561039b57600080fd5b50356001600160a01b0316610929565b610226600480360360208110156103c157600080fd5b5035610937565b610226600480360360408110156103de57600080fd5b506001600160a01b038135169060200135610962565b61014b6109e1565b6101ec6004803603604081101561041257600080fd5b506001600160a01b038135169060200135610a01565b6101ec6004803603604081101561043e57600080fd5b506001600160a01b038135169060200135610a93565b6102266004803603602081101561046a57600080fd5b50356001600160a01b0316610aa0565b6104a06004803603602081101561049057600080fd5b50356001600160a01b0316610ab2565b60408051602080825283518183015283519192839290830191858101910280838360005b838110156104dc5781810151838201526020016104c4565b505050509050019250505060405180910390f35b6104f8610b85565b604080516001600160a01b039092168252519081900360200190f35b610226610b94565b6102266004803603604081101561053257600080fd5b506001600160a01b0381358116916020013516610b9e565b6102266004803603602081101561056057600080fd5b50356001600160a01b0316610bc9565b60408051808201909152600b81526a29ba30b5b2b21027b832b760a91b602082015290565b60006105a2338484610bd4565b5060015b92915050565b60056020526000908152604090205481565b60036020526000908152604090205460ff1681565b60006105dd610ce2565b905090565b6000806105ed610ce2565b9050806105fe57600091505061061e565b61061a8161061461060d610d5e565b8690610d77565b90610dd7565b9150505b919050565b600060028054141561066a576040805162461bcd60e51b815260206004820152601f60248201526000805160206117b9833981519152604482015290519081900360640190fd5b600280556106788383610e16565b60016002559392505050565b6001600160a01b0383166000908152600160209081526040808320338452909152812054828110156106e75760405162461bcd60e51b81526004018080602001828103825260218152602001806117986021913960400191505060405180910390fd5b6106f285858561105a565b610706853361070184876110ea565b610bd4565b506001949350505050565b6000600280541415610758576040805162461bcd60e51b815260206004820152601f60248201526000805160206117b9833981519152604482015290519081900360640190fd5b6002805561076461112c565b9050600160025590565b601290565b3360008181526001602090815260408083206001600160a01b038716845290915281205490916105a291859061070190866111ed565b6001600160a01b031660009081526005602052604090205490565b3360008181526003602052604090205460ff16610821576040805162461bcd60e51b815260206004820152601660248201527527b832b729ba30b5b4b7339d103337b93134b23232b760511b604482015290519081900360640190fd5b816001600160a01b031663a9059cbb33846001600160a01b03166370a08231306040518263ffffffff1660e01b815260040180826001600160a01b0316815260200191505060206040518083038186803b15801561087e57600080fd5b505afa158015610892573d6000803e3d6000fd5b505050506040513d60208110156108a857600080fd5b5051604080516001600160e01b031960e086901b1681526001600160a01b03909316600484015260248301919091525160448083019260209291908290030181600087803b1580156108f957600080fd5b505af115801561090d573d6000803e3d6000fd5b505050506040513d602081101561092357600080fd5b50505050565b60006105a661093783611245565b600080610942610d5e565b90508061095357600091505061061e565b61061a8161061461060d610ce2565b600061096f338484611260565b6040805183815290516001600160a01b0385169133916000805160206117d98339815191529181900360200190a360006109a883610937565b6040805182815290519192506001600160a01b03861691339160008051602061181a833981519152919081900360200190a39392505050565b60408051808201909152600681526539ba27a822a760d11b602082015290565b3360009081526001602090815260408083206001600160a01b038616845290915281205482811015610a7a576040805162461bcd60e51b815260206004820152601e60248201527f4445435245415345445f414c4c4f57414e43455f42454c4f575f5a45524f0000604482015290519081900360640190fd5b610a89338561070184876110ea565b5060019392505050565b60006105a233848461105a565b60046020526000908152604090205481565b60408051600580825260c082019092526060918291906020820160a080368337019050509050610ae06105d3565b81600081518110610aed57fe5b602002602001018181525050610b01610b94565b81600181518110610b0e57fe5b602002602001018181525050610b2383610bc9565b81600281518110610b3057fe5b602002602001018181525050610b45836107a9565b81600381518110610b5257fe5b602002602001018181525050610b6783610929565b81600481518110610b7457fe5b602090810291909101015292915050565b6006546001600160a01b031681565b60006105dd610d5e565b6001600160a01b03918216600090815260016020908152604080832093909416825291909152205490565b60006105a682611245565b6001600160a01b038316610c2b576040805162461bcd60e51b8152602060048201526019602482015278415050524f56455f46524f4d5f5a45524f5f4144445245535360381b604482015290519081900360640190fd5b6001600160a01b038216610c80576040805162461bcd60e51b8152602060048201526017602482015276415050524f56455f544f5f5a45524f5f4144445245535360481b604482015290519081900360640190fd5b6001600160a01b03808416600081815260016020908152604080832094871680845294825291829020859055815185815291517f8c5be1e5ebec7d5bd14f71427d1e84f3dd0314c0f7b2291e5b200ac8c7c3b9259281900390910190a3505050565b600654604080516370a0823160e01b815230600482015290516000926001600160a01b0316916370a08231916024808301926020929190829003018186803b158015610d2d57600080fd5b505afa158015610d41573d6000803e3d6000fd5b505050506040513d6020811015610d5757600080fd5b5051905090565b60006105dd60008051602061183a8339815191526113de565b600082610d86575060006105a6565b82820282848281610d9357fe5b0414610dd05760405162461bcd60e51b81526004018080602001828103825260218152602001806117f96021913960400191505060405180910390fd5b9392505050565b6000610dd083836040518060400160405280601a815260200179536166654d6174683a206469766973696f6e206279207a65726f60301b8152506113e2565b60003382610e5a576040805162461bcd60e51b815260206004820152600c60248201526b16915493d7d1115413d4d25560a21b604482015290519081900360640190fd5b600654604080516370a0823160e01b81526001600160a01b0384811660048301529151869392909216916370a0823191602480820192602092909190829003018186803b158015610eaa57600080fd5b505afa158015610ebe573d6000803e3d6000fd5b505050506040513d6020811015610ed457600080fd5b50511015610f27576040805162461bcd60e51b815260206004820152601b60248201527a4f70656e5374616b696e673a2065786365656420616d6f756e747360281b604482015290519081900360640190fd5b6000610f32846105e2565b600654604080516323b872dd60e01b81526001600160a01b0386811660048301523060248301526044820189905291519394509116916323b872dd916064808201926020929091908290030181600087803b158015610f9057600080fd5b505af1158015610fa4573d6000803e3d6000fd5b505050506040513d6020811015610fba57600080fd5b50506001600160a01b038216600090815260056020526040902080548501905580610fe25750825b610fec8282611484565b506001600160a01b03808316600081815260046020908152604091829020429055815188815293891690840152805191927f96a25c8ce0baabc1fdefd93e9ed25d8e092a3332f3aa9a41722b5697231d1d1a929081900390910190a2611052828261154c565b949350505050565b6000611065826105e2565b9050611072848483611260565b826001600160a01b0316846001600160a01b031660008051602061181a833981519152846040518082815260200191505060405180910390a3826001600160a01b0316846001600160a01b03166000805160206117d9833981519152836040518082815260200191505060405180910390a350505050565b6000610dd083836040518060400160405280601e81526020017f536166654d6174683a207375627472616374696f6e206f766572666c6f7700008152506115b4565b6000338161113982610bc9565b6001600160a01b038084166000908152600560205260408120556006549192501663a9059cbb8361116984610937565b6040518363ffffffff1660e01b815260040180836001600160a01b0316815260200182815260200192505050602060405180830381600087803b1580156111af57600080fd5b505af11580156111c3573d6000803e3d6000fd5b505050506040513d60208110156111d957600080fd5b506111e69050828261160e565b9250505090565b600082820183811015610dd0576040805162461bcd60e51b815260206004820152601b60248201527a536166654d6174683a206164646974696f6e206f766572666c6f7760281b604482015290519081900360640190fd5b6001600160a01b031660009081526020819052604090205490565b6001600160a01b0383166112bb576040805162461bcd60e51b815260206004820152601e60248201527f5452414e534645525f46524f4d5f5448455f5a45524f5f414444524553530000604482015290519081900360640190fd5b6001600160a01b038216611315576040805162461bcd60e51b815260206004820152601c60248201527b5452414e534645525f544f5f5448455f5a45524f5f4144445245535360201b604482015290519081900360640190fd5b6001600160a01b03831660009081526020819052604090205480821115611383576040805162461bcd60e51b815260206004820152601f60248201527f5452414e534645525f414d4f554e545f455843454544535f42414c414e434500604482015290519081900360640190fd5b61138d81836110ea565b6001600160a01b0380861660009081526020819052604080822093909355908516815220546113bc90836111ed565b6001600160a01b03909316600090815260208190526040902092909255505050565b5490565b6000818361146e5760405162461bcd60e51b81526004018080602001828103825283818151815260200191508051906020019080838360005b8381101561143357818101518382015260200161141b565b50505050905090810190601f1680156114605780820380516001836020036101000a031916815260200191505b509250505060405180910390fd5b50600083858161147a57fe5b0495945050505050565b60006001600160a01b0383166114dc576040805162461bcd60e51b81526020600482015260186024820152774d494e545f544f5f5448455f5a45524f5f4144445245535360401b604482015290519081900360640190fd5b6114ee826114e8610d5e565b906111ed565b905061150860008051602061183a83398151915282611793565b6001600160a01b03831660009081526020819052604090205461152b90836111ed565b6001600160a01b039093166000908152602081905260409020929092555090565b6001600160a01b038216600060008051602061181a83398151915261157084610937565b60408051918252519081900360200190a36040805182815290516001600160a01b038416916000916000805160206117d98339815191529181900360200190a35050565b600081848411156116065760405162461bcd60e51b815260206004820181815283516024840152835190928392604490910191908501908083836000831561143357818101518382015260200161141b565b505050900390565b60006001600160a01b038316611668576040805162461bcd60e51b815260206004820152601a6024820152794255524e5f46524f4d5f5448455f5a45524f5f4144445245535360301b604482015290519081900360640190fd5b6001600160a01b038316600090815260208190526040902054808311156116d4576040805162461bcd60e51b815260206004820152601b60248201527a4255524e5f414d4f554e545f455843454544535f42414c414e434560281b604482015290519081900360640190fd5b60006116df84610937565b90506116f3846116ed610d5e565b906110ea565b925061170d60008051602061183a83398151915284611793565b61171782856110ea565b6001600160a01b03861660009081526020819052604081209190915561173c85610937565b604080518481526020810183905280820188905290519192506001600160a01b038816917f8b2a1e1ad5e0578c3dd82494156e985dade827a87c573b5c1c7716a32162ad649181900360600190a250505092915050565b905556fe5452414e534645525f414d4f554e545f455843454544535f414c4c4f57414e43455265656e7472616e637947756172643a207265656e7472616e742063616c6c009d9c909296d9c674451c0c24f02cb64981eb3b727f99865939192f880a755dcb536166654d6174683a206d756c7469706c69636174696f6e206f766572666c6f77ddf252ad1be2c89b69c2b068fc378daa952ba7f163c4a11628f55a4df523b3ef9ff98c80df089d6bf6eb2fc8f6cbe78048a8bba7d3dcb13098800aa549e04459a26469706673582212204a900c47cf69fe0e287b1c4212d9a1ab450cb82927f8c724bd86895c3faf347d64736f6c634300060c0033",
  "linkReferences": {},
  "deployedLinkReferences": {}
}