{
  "_format": "hh-sol-artifact-1",
  "contractName": "RewardRouterV2",
  "sourceName": "contracts/staking/RewardRouterV2.sol",
  "abi": [
    {
      "anonymous": false,
      "inputs": [
        {
          "indexed": false,
          "internalType": "address",
          "name": "account",
          "type": "address"
        },
        {
          "indexed": false,
          "internalType": "uint256",
          "name": "amount",
          "type": "uint256"
        }
      ],
      "name": "StakeOap",
      "type": "event"
    },
    {
      "anonymous": false,
      "inputs": [
        {
          "indexed": false,
          "internalType": "address",
          "name": "account",
          "type": "address"
        },
        {
          "indexed": false,
          "internalType": "address",
          "name": "token",
          "type": "address"
        },
        {
          "indexed": false,
          "internalType": "uint256",
          "name": "amount",
          "type": "uint256"
        }
      ],
      "name": "StakeOpen",
      "type": "event"
    },
    {
      "anonymous": false,
      "inputs": [
        {
          "indexed": false,
          "internalType": "address",
          "name": "account",
          "type": "address"
        },
        {
          "indexed": false,
          "internalType": "uint256",
          "name": "amount",
          "type": "uint256"
        }
      ],
      "name": "UnstakeOap",
      "type": "event"
    },
    {
      "anonymous": false,
      "inputs": [
        {
          "indexed": false,
          "internalType": "address",
          "name": "account",
          "type": "address"
        },
        {
          "indexed": false,
          "internalType": "address",
          "name": "token",
          "type": "address"
        },
        {
          "indexed": false,
          "internalType": "uint256",
          "name": "amount",
          "type": "uint256"
        }
      ],
      "name": "UnstakeOpen",
      "type": "event"
    },
    {
      "inputs": [
        {
          "internalType": "address",
          "name": "_sender",
          "type": "address"
        }
      ],
      "name": "acceptTransfer",
      "outputs": [],
      "stateMutability": "nonpayable",
      "type": "function"
    },
    {
      "inputs": [
        {
          "internalType": "address[]",
          "name": "_accounts",
          "type": "address[]"
        }
      ],
      "name": "batchCompoundForAccounts",
      "outputs": [],
      "stateMutability": "nonpayable",
      "type": "function"
    },
    {
      "inputs": [
        {
          "internalType": "address[]",
          "name": "_accounts",
          "type": "address[]"
        },
        {
          "internalType": "uint256[]",
          "name": "_amounts",
          "type": "uint256[]"
        }
      ],
      "name": "batchStakeOpenForAccount",
      "outputs": [],
      "stateMutability": "nonpayable",
      "type": "function"
    },
    {
      "inputs": [],
      "name": "bnOpen",
      "outputs": [
        {
          "internalType": "address",
          "name": "",
          "type": "address"
        }
      ],
      "stateMutability": "view",
      "type": "function"
    },
    {
      "inputs": [],
      "name": "bonusOpenTracker",
      "outputs": [
        {
          "internalType": "address",
          "name": "",
          "type": "address"
        }
      ],
      "stateMutability": "view",
      "type": "function"
    },
    {
      "inputs": [],
      "name": "claim",
      "outputs": [],
      "stateMutability": "nonpayable",
      "type": "function"
    },
    {
      "inputs": [],
      "name": "claimEsOpen",
      "outputs": [],
      "stateMutability": "nonpayable",
      "type": "function"
    },
    {
      "inputs": [],
      "name": "claimFees",
      "outputs": [],
      "stateMutability": "nonpayable",
      "type": "function"
    },
    {
      "inputs": [],
      "name": "compound",
      "outputs": [],
      "stateMutability": "nonpayable",
      "type": "function"
    },
    {
      "inputs": [
        {
          "internalType": "address",
          "name": "_account",
          "type": "address"
        }
      ],
      "name": "compoundForAccount",
      "outputs": [],
      "stateMutability": "nonpayable",
      "type": "function"
    },
    {
      "inputs": [],
      "name": "esOpen",
      "outputs": [
        {
          "internalType": "address",
          "name": "",
          "type": "address"
        }
      ],
      "stateMutability": "view",
      "type": "function"
    },
    {
      "inputs": [],
      "name": "feeOapTracker",
      "outputs": [
        {
          "internalType": "address",
          "name": "",
          "type": "address"
        }
      ],
      "stateMutability": "view",
      "type": "function"
    },
    {
      "inputs": [],
      "name": "feeOpenTracker",
      "outputs": [
        {
          "internalType": "address",
          "name": "",
          "type": "address"
        }
      ],
      "stateMutability": "view",
      "type": "function"
    },
    {
      "inputs": [],
      "name": "gov",
      "outputs": [
        {
          "internalType": "address",
          "name": "",
          "type": "address"
        }
      ],
      "stateMutability": "view",
      "type": "function"
    },
    {
      "inputs": [
        {
          "internalType": "bool",
          "name": "_shouldClaimOpen",
          "type": "bool"
        },
        {
          "internalType": "bool",
          "name": "_shouldStakeOpen",
          "type": "bool"
        },
        {
          "internalType": "bool",
          "name": "_shouldClaimEsOpen",
          "type": "bool"
        },
        {
          "internalType": "bool",
          "name": "_shouldStakeEsOpen",
          "type": "bool"
        },
        {
          "internalType": "bool",
          "name": "_shouldStakeMultiplierPoints",
          "type": "bool"
        },
        {
          "internalType": "bool",
          "name": "_shouldClaimWeth",
          "type": "bool"
        },
        {
          "internalType": "bool",
          "name": "_shouldConvertWethToEth",
          "type": "bool"
        }
      ],
      "name": "handleRewards",
      "outputs": [],
      "stateMutability": "nonpayable",
      "type": "function"
    },
    {
      "inputs": [
        {
          "internalType": "address",
          "name": "_weth",
          "type": "address"
        },
        {
          "internalType": "address",
          "name": "_open",
          "type": "address"
        },
        {
          "internalType": "address",
          "name": "_esOpen",
          "type": "address"
        },
        {
          "internalType": "address",
          "name": "_bnOpen",
          "type": "address"
        },
        {
          "internalType": "address",
          "name": "_oap",
          "type": "address"
        },
        {
          "internalType": "address",
          "name": "_stakedOpenTracker",
          "type": "address"
        },
        {
          "internalType": "address",
          "name": "_bonusOpenTracker",
          "type": "address"
        },
        {
          "internalType": "address",
          "name": "_feeOpenTracker",
          "type": "address"
        },
        {
          "internalType": "address",
          "name": "_feeOapTracker",
          "type": "address"
        },
        {
          "internalType": "address",
          "name": "_stakedOapTracker",
          "type": "address"
        },
        {
          "internalType": "address",
          "name": "_oapManager",
          "type": "address"
        },
        {
          "internalType": "address",
          "name": "_openVester",
          "type": "address"
        },
        {
          "internalType": "address",
          "name": "_oapVester",
          "type": "address"
        }
      ],
      "name": "initialize",
      "outputs": [],
      "stateMutability": "nonpayable",
      "type": "function"
    },
    {
      "inputs": [],
      "name": "isInitialized",
      "outputs": [
        {
          "internalType": "bool",
          "name": "",
          "type": "bool"
        }
      ],
      "stateMutability": "view",
      "type": "function"
    },
    {
      "inputs": [
        {
          "internalType": "address",
          "name": "_token",
          "type": "address"
        },
        {
          "internalType": "uint256",
          "name": "_amount",
          "type": "uint256"
        },
        {
          "internalType": "uint256",
          "name": "_minUsdg",
          "type": "uint256"
        },
        {
          "internalType": "uint256",
          "name": "_minOap",
          "type": "uint256"
        }
      ],
      "name": "mintAndStakeOap",
      "outputs": [
        {
          "internalType": "uint256",
          "name": "",
          "type": "uint256"
        }
      ],
      "stateMutability": "nonpayable",
      "type": "function"
    },
    {
      "inputs": [
        {
          "internalType": "uint256",
          "name": "_minUsdo",
          "type": "uint256"
        },
        {
          "internalType": "uint256",
          "name": "_minOap",
          "type": "uint256"
        }
      ],
      "name": "mintAndStakeOapETH",
      "outputs": [
        {
          "internalType": "uint256",
          "name": "",
          "type": "uint256"
        }
      ],
      "stateMutability": "payable",
      "type": "function"
    },
    {
      "inputs": [
        {
          "internalType": "address",
          "name": "_token",
          "type": "address"
        },
        {
          "internalType": "uint256",
          "name": "_amount",
          "type": "uint256"
        },
        {
          "internalType": "uint256",
          "name": "_minUsdg",
          "type": "uint256"
        },
        {
          "internalType": "uint256",
          "name": "_minOap",
          "type": "uint256"
        },
        {
          "internalType": "address",
          "name": "_account",
          "type": "address"
        }
      ],
      "name": "mintAndStakeOapForAccount",
      "outputs": [
        {
          "internalType": "uint256",
          "name": "",
          "type": "uint256"
        }
      ],
      "stateMutability": "nonpayable",
      "type": "function"
    },
    {
      "inputs": [],
      "name": "oap",
      "outputs": [
        {
          "internalType": "address",
          "name": "",
          "type": "address"
        }
      ],
      "stateMutability": "view",
      "type": "function"
    },
    {
      "inputs": [],
      "name": "oapManager",
      "outputs": [
        {
          "internalType": "address",
          "name": "",
          "type": "address"
        }
      ],
      "stateMutability": "view",
      "type": "function"
    },
    {
      "inputs": [],
      "name": "oapVester",
      "outputs": [
        {
          "internalType": "address",
          "name": "",
          "type": "address"
        }
      ],
      "stateMutability": "view",
      "type": "function"
    },
    {
      "inputs": [],
      "name": "open",
      "outputs": [
        {
          "internalType": "address",
          "name": "",
          "type": "address"
        }
      ],
      "stateMutability": "view",
      "type": "function"
    },
    {
      "inputs": [],
      "name": "openVester",
      "outputs": [
        {
          "internalType": "address",
          "name": "",
          "type": "address"
        }
      ],
      "stateMutability": "view",
      "type": "function"
    },
    {
      "inputs": [
        {
          "internalType": "address",
          "name": "",
          "type": "address"
        }
      ],
      "name": "pendingReceivers",
      "outputs": [
        {
          "internalType": "address",
          "name": "",
          "type": "address"
        }
      ],
      "stateMutability": "view",
      "type": "function"
    },
    {
      "inputs": [
        {
          "internalType": "address",
          "name": "_gov",
          "type": "address"
        }
      ],
      "name": "setGov",
      "outputs": [],
      "stateMutability": "nonpayable",
      "type": "function"
    },
    {
      "inputs": [
        {
          "internalType": "address",
          "name": "_receiver",
          "type": "address"
        }
      ],
      "name": "signalTransfer",
      "outputs": [],
      "stateMutability": "nonpayable",
      "type": "function"
    },
    {
      "inputs": [
        {
          "internalType": "uint256",
          "name": "_amount",
          "type": "uint256"
        }
      ],
      "name": "stakeEsOpen",
      "outputs": [],
      "stateMutability": "nonpayable",
      "type": "function"
    },
    {
      "inputs": [
        {
          "internalType": "uint256",
          "name": "_amount",
          "type": "uint256"
        }
      ],
      "name": "stakeOpen",
      "outputs": [],
      "stateMutability": "nonpayable",
      "type": "function"
    },
    {
      "inputs": [
        {
          "internalType": "address",
          "name": "_account",
          "type": "address"
        },
        {
          "internalType": "uint256",
          "name": "_amount",
          "type": "uint256"
        }
      ],
      "name": "stakeOpenForAccount",
      "outputs": [],
      "stateMutability": "nonpayable",
      "type": "function"
    },
    {
      "inputs": [],
      "name": "stakedOapTracker",
      "outputs": [
        {
          "internalType": "address",
          "name": "",
          "type": "address"
        }
      ],
      "stateMutability": "view",
      "type": "function"
    },
    {
      "inputs": [],
      "name": "stakedOpenTracker",
      "outputs": [
        {
          "internalType": "address",
          "name": "",
          "type": "address"
        }
      ],
      "stateMutability": "view",
      "type": "function"
    },
    {
      "inputs": [
        {
          "internalType": "address",
          "name": "_tokenOut",
          "type": "address"
        },
        {
          "internalType": "uint256",
          "name": "_oapAmount",
          "type": "uint256"
        },
        {
          "internalType": "uint256",
          "name": "_minOut",
          "type": "uint256"
        },
        {
          "internalType": "address",
          "name": "_receiver",
          "type": "address"
        }
      ],
      "name": "unstakeAndRedeemOap",
      "outputs": [
        {
          "internalType": "uint256",
          "name": "",
          "type": "uint256"
        }
      ],
      "stateMutability": "nonpayable",
      "type": "function"
    },
    {
      "inputs": [
        {
          "internalType": "uint256",
          "name": "_oapAmount",
          "type": "uint256"
        },
        {
          "internalType": "uint256",
          "name": "_minOut",
          "type": "uint256"
        },
        {
          "internalType": "address payable",
          "name": "_receiver",
          "type": "address"
        }
      ],
      "name": "unstakeAndRedeemOapETH",
      "outputs": [
        {
          "internalType": "uint256",
          "name": "",
          "type": "uint256"
        }
      ],
      "stateMutability": "nonpayable",
      "type": "function"
    },
    {
      "inputs": [
        {
          "internalType": "uint256",
          "name": "_amount",
          "type": "uint256"
        }
      ],
      "name": "unstakeEsOpen",
      "outputs": [],
      "stateMutability": "nonpayable",
      "type": "function"
    },
    {
      "inputs": [
        {
          "internalType": "uint256",
          "name": "_amount",
          "type": "uint256"
        }
      ],
      "name": "unstakeOpen",
      "outputs": [],
      "stateMutability": "nonpayable",
      "type": "function"
    },
    {
      "inputs": [],
      "name": "weth",
      "outputs": [
        {
          "internalType": "address",
          "name": "",
          "type": "address"
        }
      ],
      "stateMutability": "view",
      "type": "function"
    },
    {
      "inputs": [
        {
          "internalType": "address",
          "name": "_token",
          "type": "address"
        },
        {
          "internalType": "address",
          "name": "_account",
          "type": "address"
        },
        {
          "internalType": "uint256",
          "name": "_amount",
          "type": "uint256"
        }
      ],
      "name": "withdrawToken",
      "outputs": [],
      "stateMutability": "nonpayable",
      "type": "function"
    },
    {
      "stateMutability": "payable",
      "type": "receive"
    }
  ],
  "bytecode": "0x608060405234801561001057600080fd5b506001600081905580546001600160a01b0319163317905561514f806100376000396000f3fe6080604052600436106101c45760003560e01c806301e33667146102285780630295e46f1461026b5780630b5684411461029c57806312d43a51146102b157806312ec52f2146102c65780631444e487146103275780631af276a6146103515780632a9f4083146103ff5780632fdd983d1461043257806330b70002146104cd57806336be260414610529578063392e53cd1461053e5780633a43750d146105675780633a81be061461057c5780633e2b53df146105915780633eb162ba146105ca5780633fc8cef3146105f45780634e71d92d1461060957806363fb63db1461061e57806364489cbb14610665578063655603a41461067a57806378830523146106ad578063874710e8146106d75780638dbe4d7114610807578063a66a5b321461084c578063abbdd88f14610861578063c383f4b214610876578063ce298b1514610899578063cfad57a2146108ae578063d1a28777146108e1578063d25140b3146108f6578063d294f09314610935578063dca388b01461094a578063dfab0c2c14610974578063e1b9db8914610989578063e3e9a886146109bc578063ef9aacfd146109d1578063f69e204614610a04578063fcfff16f14610a1957610223565b36610223576002546001600160a01b03163314610221576040805162461bcd60e51b81526020600482015260166024820152752937baba32b91d1034b73b30b634b21039b2b73232b960511b604482015290519081900360640190fd5b005b600080fd5b34801561023457600080fd5b506102216004803603606081101561024b57600080fd5b506001600160a01b03813581169160208101359091169060400135610a2e565b34801561027757600080fd5b50610280610a94565b604080516001600160a01b039092168252519081900360200190f35b3480156102a857600080fd5b50610280610aa3565b3480156102bd57600080fd5b50610280610ab2565b3480156102d257600080fd5b50610315600480360360a08110156102e957600080fd5b506001600160a01b03813581169160208101359160408201359160608101359160809091013516610ac1565b60408051918252519081900360200190f35b34801561033357600080fd5b506102216004803603602081101561034a57600080fd5b5035610d30565b34801561035d57600080fd5b506102216004803603602081101561037457600080fd5b810190602081018135600160201b81111561038e57600080fd5b8201836020820111156103a057600080fd5b803590602001918460208302840111600160201b831117156103c157600080fd5b919080806020026020016040519081016040528093929190818152602001838360200280828437600092019190915250929550610d9d945050505050565b34801561040b57600080fd5b506102216004803603602081101561042257600080fd5b50356001600160a01b0316610e6e565b34801561043e57600080fd5b5061022160048036036101a081101561045657600080fd5b506001600160a01b038135811691602081013582169160408201358116916060810135821691608082013581169160a081013582169160c082013581169160e08101358216916101008201358116916101208101358216916101408201358116916101608101358216916101809091013516610f0f565b3480156104d957600080fd5b50610221600480360360e08110156104f057600080fd5b508035151590602081013515159060408101351515906060810135151590608081013515159060a081013515159060c00135151561109c565b34801561053557600080fd5b5061022161128f565b34801561054a57600080fd5b506105536113ea565b604080519115158252519081900360200190f35b34801561057357600080fd5b506102806113fa565b34801561058857600080fd5b50610280611409565b34801561059d57600080fd5b50610221600480360360408110156105b457600080fd5b506001600160a01b038135169060200135611418565b3480156105d657600080fd5b50610221600480360360208110156105ed57600080fd5b50356114ca565b34801561060057600080fd5b5061028061152f565b34801561061557600080fd5b5061022161153e565b34801561062a57600080fd5b506103156004803603608081101561064157600080fd5b506001600160a01b03813581169160208101359160408201359160600135166116e7565b34801561067157600080fd5b50610280611957565b34801561068657600080fd5b506102216004803603602081101561069d57600080fd5b50356001600160a01b0316611966565b3480156106b957600080fd5b50610221600480360360208110156106d057600080fd5b503561236f565b3480156106e357600080fd5b50610221600480360360408110156106fa57600080fd5b810190602081018135600160201b81111561071457600080fd5b82018360208201111561072657600080fd5b803590602001918460208302840111600160201b8311171561074757600080fd5b9190808060200260200160405190810160405280939291908181526020018383602002808284376000920191909152509295949360208101935035915050600160201b81111561079657600080fd5b8201836020820111156107a857600080fd5b803590602001918460208302840111600160201b831117156107c957600080fd5b9190808060200260200160405190810160405280939291908181526020018383602002808284376000920191909152509295506123d4945050505050565b34801561081357600080fd5b506103156004803603608081101561082a57600080fd5b506001600160a01b0381351690602081013590604081013590606001356124c9565b34801561085857600080fd5b50610280612737565b34801561086d57600080fd5b50610280612746565b6103156004803603604081101561088c57600080fd5b5080359060200135612755565b3480156108a557600080fd5b50610280612ac0565b3480156108ba57600080fd5b50610221600480360360208110156108d157600080fd5b50356001600160a01b0316612acf565b3480156108ed57600080fd5b50610280612b3e565b34801561090257600080fd5b506103156004803603606081101561091957600080fd5b50803590602081013590604001356001600160a01b0316612b4d565b34801561094157600080fd5b50610221612e36565b34801561095657600080fd5b506102216004803603602081101561096d57600080fd5b5035612f5d565b34801561098057600080fd5b50610280612fc2565b34801561099557600080fd5b50610280600480360360208110156109ac57600080fd5b50356001600160a01b0316612fd1565b3480156109c857600080fd5b50610280612fec565b3480156109dd57600080fd5b50610221600480360360208110156109f457600080fd5b50356001600160a01b0316612ffb565b348015610a1057600080fd5b506102216131e9565b348015610a2557600080fd5b50610280613244565b6001546001600160a01b03163314610a7b576040805162461bcd60e51b81526020600482015260156024820152600080516020614d18833981519152604482015290519081900360640190fd5b610a8f6001600160a01b0384168383613253565b505050565b600c546001600160a01b031681565b600a546001600160a01b031681565b6001546001600160a01b031681565b600060026000541415610b09576040805162461bcd60e51b815260206004820152601f6024820152600080516020614c79833981519152604482015290519081900360640190fd5b600260005584610b4e576040805162461bcd60e51b815260206004820152601d60248201526000805160206150fa833981519152604482015290519081900360640190fd5b600c54604080516317eb2a1560e01b81526001600160a01b038086166004830181905260248301528981166044830152606482018990526084820188905260a482018790529151859360009316916317eb2a159160c480830192602092919082900301818787803b158015610bc257600080fd5b505af1158015610bd6573d6000803e3d6000fd5b505050506040513d6020811015610bec57600080fd5b5051600b5460065460408051631e42d69b60e21b81526001600160a01b03878116600483018190526024830152928316604482015260648101859052905193945091169163790b5a6c9160848082019260009290919082900301818387803b158015610c5757600080fd5b505af1158015610c6b573d6000803e3d6000fd5b5050600a54600b5460408051631e42d69b60e21b81526001600160a01b03888116600483018190526024830152928316604482015260648101879052905191909216935063790b5a6c9250608480830192600092919082900301818387803b158015610cd657600080fd5b505af1158015610cea573d6000803e3d6000fd5b5050604080516001600160a01b0386168152602081018590528151600080516020614c998339815191529450908190039091019150a16001600055979650505050505050565b60026000541415610d76576040805162461bcd60e51b815260206004820152601f6024820152600080516020614c79833981519152604482015290519081900360640190fd5b6002600055600354610d959033906001600160a01b03168360016132a5565b506001600055565b60026000541415610de3576040805162461bcd60e51b815260206004820152601f6024820152600080516020614c79833981519152604482015290519081900360640190fd5b60026000556001546001600160a01b03163314610e35576040805162461bcd60e51b81526020600482015260156024820152600080516020614d18833981519152604482015290519081900360640190fd5b60005b8151811015610e6557610e5d828281518110610e5057fe5b60200260200101516137e7565b600101610e38565b50506001600055565b60026000541415610eb4576040805162461bcd60e51b815260206004820152601f6024820152600080516020614c79833981519152604482015290519081900360640190fd5b60026000556001546001600160a01b03163314610f06576040805162461bcd60e51b81526020600482015260156024820152600080516020614d18833981519152604482015290519081900360640190fd5b610d95816137e7565b6001546001600160a01b03163314610f5c576040805162461bcd60e51b81526020600482015260156024820152600080516020614d18833981519152604482015290519081900360640190fd5b600154600160a01b900460ff1615610fa55760405162461bcd60e51b8152600401808060200182810382526021815260200180614da66021913960400191505060405180910390fd5b6001805460ff60a01b1916600160a01b179055600280546001600160a01b039e8f166001600160a01b031991821617909155600380549d8f169d82169d909d17909c55600480549b8e169b8d169b909b17909a5560058054998d16998c169990991790985560068054978c16978b169790971790965560078054958b16958a169590951790945560088054938a169389169390931790925560098054918916918816919091179055600b8054918816918716919091179055600a8054918716918616919091179055600c8054918616918516919091179055600d8054918516918416919091179055600e8054919093169116179055565b600260005414156110e2576040805162461bcd60e51b815260206004820152601f6024820152600080516020614c79833981519152604482015290519081900360640190fd5b60026000553382156112805781156111fd57600b54604080516309f4173d60e11b81526001600160a01b038481166004830152306024830152915160009392909216916313e82e7a9160448082019260209290919082900301818787803b15801561114c57600080fd5b505af1158015611160573d6000803e3d6000fd5b505050506040513d602081101561117657600080fd5b505160025460408051632e1a7d4d60e01b815260048101849052905192935083926001600160a01b0390921691632e1a7d4d9160248082019260009290919082900301818387803b1580156111ca57600080fd5b505af11580156111de573d6000803e3d6000fd5b506111f6925050506001600160a01b038416826137fc565b5050611280565b600b54604080516309f4173d60e11b81526001600160a01b03848116600483018190526024830152915191909216916313e82e7a9160448083019260209291908290030181600087803b15801561125357600080fd5b505af1158015611267573d6000803e3d6000fd5b505050506040513d602081101561127d57600080fd5b50505b50506001600055505050505050565b600260005414156112d5576040805162461bcd60e51b815260206004820152601f6024820152600080516020614c79833981519152604482015290519081900360640190fd5b60026000908155600754604080516309f4173d60e11b8152336004820181905260248201819052915191936001600160a01b03909316926313e82e7a926044808401936020939083900390910190829087803b15801561133457600080fd5b505af1158015611348573d6000803e3d6000fd5b505050506040513d602081101561135e57600080fd5b5050600a54604080516309f4173d60e11b81526001600160a01b03848116600483018190526024830152915191909216916313e82e7a9160448083019260209291908290030181600087803b1580156113b657600080fd5b505af11580156113ca573d6000803e3d6000fd5b505050506040513d60208110156113e057600080fd5b5050600160005550565b600154600160a01b900460ff1681565b6004546001600160a01b031681565b6005546001600160a01b031681565b6002600054141561145e576040805162461bcd60e51b815260206004820152601f6024820152600080516020614c79833981519152604482015290519081900360640190fd5b60026000556001546001600160a01b031633146114b0576040805162461bcd60e51b81526020600482015260156024820152600080516020614d18833981519152604482015290519081900360640190fd5b600354610e6590339084906001600160a01b0316846138e1565b60026000541415611510576040805162461bcd60e51b815260206004820152601f6024820152600080516020614c79833981519152604482015290519081900360640190fd5b6002600055600354610d9590339081906001600160a01b0316846138e1565b6002546001600160a01b031681565b60026000541415611584576040805162461bcd60e51b815260206004820152601f6024820152600080516020614c79833981519152604482015290519081900360640190fd5b60026000908155600954604080516309f4173d60e11b8152336004820181905260248201819052915191936001600160a01b03909316926313e82e7a926044808401936020939083900390910190829087803b1580156115e357600080fd5b505af11580156115f7573d6000803e3d6000fd5b505050506040513d602081101561160d57600080fd5b5050600b54604080516309f4173d60e11b81526001600160a01b03848116600483018190526024830152915191909216916313e82e7a9160448083019260209291908290030181600087803b15801561166557600080fd5b505af1158015611679573d6000803e3d6000fd5b505050506040513d602081101561168f57600080fd5b5050600754604080516309f4173d60e11b81526001600160a01b03848116600483018190526024830152915191909216916313e82e7a9160448083019260209291908290030181600087803b15801561133457600080fd5b60006002600054141561172f576040805162461bcd60e51b815260206004820152601f6024820152600080516020614c79833981519152604482015290519081900360640190fd5b600260005583611774576040805162461bcd60e51b81526020600482018190526024820152600080516020614ff7833981519152604482015290519081900360640190fd5b600a54600b546040805163098bf59d60e01b815233600482018190526001600160a01b039384166024830152604482018990526064820181905291519193929092169163098bf59d91608480830192600092919082900301818387803b1580156117dd57600080fd5b505af11580156117f1573d6000803e3d6000fd5b5050600b546006546040805163098bf59d60e01b81526001600160a01b03878116600483018190529381166024830152604482018c90526064820193909352905191909216935063098bf59d9250608480830192600092919082900301818387803b15801561185f57600080fd5b505af1158015611873573d6000803e3d6000fd5b5050600c54604080516371d597ad60e01b81526001600160a01b0386811660048301528b81166024830152604482018b9052606482018a905288811660848301529151600095509190921692506371d597ad9160a48082019260209290919082900301818787803b1580156118e757600080fd5b505af11580156118fb573d6000803e3d6000fd5b505050506040513d602081101561191157600080fd5b5051604080516001600160a01b038516815260208101899052815192935060008051602061504b833981519152929081900390910190a160016000559695505050505050565b6009546001600160a01b031681565b600260005414156119ac576040805162461bcd60e51b815260206004820152601f6024820152600080516020614c79833981519152604482015290519081900360640190fd5b6002600055600d54604080516370a0823160e01b81526001600160a01b038481166004830152915191909216916370a08231916024808301926020929190829003018186803b1580156119fe57600080fd5b505afa158015611a12573d6000803e3d6000fd5b505050506040513d6020811015611a2857600080fd5b505115611a665760405162461bcd60e51b8152600401808060200182810382526026815260200180614cf26026913960400191505060405180910390fd5b600e54604080516370a0823160e01b81526001600160a01b038481166004830152915191909216916370a08231916024808301926020929190829003018186803b158015611ab357600080fd5b505afa158015611ac7573d6000803e3d6000fd5b505050506040513d6020811015611add57600080fd5b505115611b1b5760405162461bcd60e51b8152600401808060200182810382526026815260200180614cf26026913960400191505060405180910390fd5b6001600160a01b038181166000908152600f60205260409020543391168114611b755760405162461bcd60e51b8152600401808060200182810382526024815260200180614e846024913960400191505060405180910390fd5b6001600160a01b0382166000908152600f6020526040902080546001600160a01b0319169055611ba481613af0565b611bad826137e7565b60075460035460408051637aeceb1f60e11b81526001600160a01b03868116600483015292831660248201529051600093929092169163f5d9d63e91604480820192602092909190829003018186803b158015611c0957600080fd5b505afa158015611c1d573d6000803e3d6000fd5b505050506040513d6020811015611c3357600080fd5b505190508015611c7157600354611c579084906001600160a01b03168360006132a5565b600354611c7190849084906001600160a01b0316846138e1565b6007546004805460408051637aeceb1f60e11b81526001600160a01b0388811694820194909452918316602483015251600093929092169163f5d9d63e91604480820192602092909190829003018186803b158015611ccf57600080fd5b505afa158015611ce3573d6000803e3d6000fd5b505050506040513d6020811015611cf957600080fd5b505190508015611d3757600454611d1d9085906001600160a01b03168360006132a5565b600454611d3790859085906001600160a01b0316846138e1565b60095460055460408051637aeceb1f60e11b81526001600160a01b03888116600483015292831660248201529051600093929092169163f5d9d63e91604480820192602092909190829003018186803b158015611d9357600080fd5b505afa158015611da7573d6000803e3d6000fd5b505050506040513d6020811015611dbd57600080fd5b505190508015611eca576009546005546040805163098bf59d60e01b81526001600160a01b038981166004830181905293811660248301526044820186905260648201939093529051919092169163098bf59d91608480830192600092919082900301818387803b158015611e3157600080fd5b505af1158015611e45573d6000803e3d6000fd5b505060095460055460408051631e42d69b60e21b81526001600160a01b038b811660048301528a81166024830152928316604482015260648101879052905191909216935063790b5a6c9250608480830192600092919082900301818387803b158015611eb157600080fd5b505af1158015611ec5573d6000803e3d6000fd5b505050505b6000600460009054906101000a90046001600160a01b03166001600160a01b03166370a08231876040518263ffffffff1660e01b815260040180826001600160a01b0316815260200191505060206040518083038186803b158015611f2e57600080fd5b505afa158015611f42573d6000803e3d6000fd5b505050506040513d6020811015611f5857600080fd5b505190508015611ff15760048054604080516323b872dd60e01b81526001600160a01b038a811694820194909452888416602482015260448101859052905192909116916323b872dd916064808201926020929091908290030181600087803b158015611fc457600080fd5b505af1158015611fd8573d6000803e3d6000fd5b505050506040513d6020811015611fee57600080fd5b50505b600b5460065460408051637aeceb1f60e11b81526001600160a01b038a8116600483015292831660248201529051600093929092169163f5d9d63e91604480820192602092909190829003018186803b15801561204d57600080fd5b505afa158015612061573d6000803e3d6000fd5b505050506040513d602081101561207757600080fd5b50519050801561228557600a54600b546040805163098bf59d60e01b81526001600160a01b038b81166004830181905293811660248301526044820186905260648201939093529051919092169163098bf59d91608480830192600092919082900301818387803b1580156120eb57600080fd5b505af11580156120ff573d6000803e3d6000fd5b5050600b546006546040805163098bf59d60e01b81526001600160a01b038d8116600483018190529381166024830152604482018890526064820193909352905191909216935063098bf59d9250608480830192600092919082900301818387803b15801561216d57600080fd5b505af1158015612181573d6000803e3d6000fd5b5050600b5460065460408051631e42d69b60e21b81526001600160a01b038d811660048301528c81166024830152928316604482015260648101879052905191909216935063790b5a6c9250608480830192600092919082900301818387803b1580156121ed57600080fd5b505af1158015612201573d6000803e3d6000fd5b5050600a54600b5460408051631e42d69b60e21b81526001600160a01b038c8116600483018190526024830152928316604482015260648101879052905191909216935063790b5a6c9250608480830192600092919082900301818387803b15801561226c57600080fd5b505af1158015612280573d6000803e3d6000fd5b505050505b600d5460408051630f713c2360e41b81526001600160a01b038a8116600483015289811660248301529151919092169163f713c23091604480830192600092919082900301818387803b1580156122db57600080fd5b505af11580156122ef573d6000803e3d6000fd5b5050600e5460408051630f713c2360e41b81526001600160a01b038c811660048301528b81166024830152915191909216935063f713c2309250604480830192600092919082900301818387803b15801561234957600080fd5b505af115801561235d573d6000803e3d6000fd5b50506001600055505050505050505050565b600260005414156123b5576040805162461bcd60e51b815260206004820152601f6024820152600080516020614c79833981519152604482015290519081900360640190fd5b6002600055600454610d9590339081906001600160a01b0316846138e1565b6002600054141561241a576040805162461bcd60e51b815260206004820152601f6024820152600080516020614c79833981519152604482015290519081900360640190fd5b60026000556001546001600160a01b0316331461246c576040805162461bcd60e51b81526020600482015260156024820152600080516020614d18833981519152604482015290519081900360640190fd5b6003546001600160a01b031660005b83518110156124be576124b63385838151811061249457fe5b6020026020010151848685815181106124a957fe5b60200260200101516138e1565b60010161247b565b505060016000555050565b600060026000541415612511576040805162461bcd60e51b815260206004820152601f6024820152600080516020614c79833981519152604482015290519081900360640190fd5b600260005583612556576040805162461bcd60e51b815260206004820152601d60248201526000805160206150fa833981519152604482015290519081900360640190fd5b600c54604080516317eb2a1560e01b81523360048201819052602482018190526001600160a01b038981166044840152606483018990526084830188905260a483018790529251909360009316916317eb2a159160c480830192602092919082900301818787803b1580156125ca57600080fd5b505af11580156125de573d6000803e3d6000fd5b505050506040513d60208110156125f457600080fd5b5051600b5460065460408051631e42d69b60e21b81526001600160a01b03878116600483018190526024830152928316604482015260648101859052905193945091169163790b5a6c9160848082019260009290919082900301818387803b15801561265f57600080fd5b505af1158015612673573d6000803e3d6000fd5b5050600a54600b5460408051631e42d69b60e21b81526001600160a01b03888116600483018190526024830152928316604482015260648101879052905191909216935063790b5a6c9250608480830192600092919082900301818387803b1580156126de57600080fd5b505af11580156126f2573d6000803e3d6000fd5b5050604080516001600160a01b0386168152602081018590528151600080516020614c998339815191529450908190039091019150a160016000559695505050505050565b600b546001600160a01b031681565b600e546001600160a01b031681565b60006002600054141561279d576040805162461bcd60e51b815260206004820152601f6024820152600080516020614c79833981519152604482015290519081900360640190fd5b6002600055346127f4576040805162461bcd60e51b815260206004820152601f60248201527f526577617264526f757465723a20696e76616c6964206d73672e76616c756500604482015290519081900360640190fd5b600260009054906101000a90046001600160a01b03166001600160a01b031663d0e30db0346040518263ffffffff1660e01b81526004016000604051808303818588803b15801561284457600080fd5b505af1158015612858573d6000803e3d6000fd5b5050600254600c546040805163095ea7b360e01b81526001600160a01b039283166004820152346024820152905191909216945063095ea7b39350604480830193506020928290030181600087803b1580156128b357600080fd5b505af11580156128c7573d6000803e3d6000fd5b505050506040513d60208110156128dd57600080fd5b5050600c54600254604080516317eb2a1560e01b815230600482015233602482018190526001600160a01b0393841660448301523460648301526084820188905260a482018790529151919360009316916317eb2a159160c48082019260209290919082900301818787803b15801561295557600080fd5b505af1158015612969573d6000803e3d6000fd5b505050506040513d602081101561297f57600080fd5b5051600b5460065460408051631e42d69b60e21b81526001600160a01b03878116600483018190526024830152928316604482015260648101859052905193945091169163790b5a6c9160848082019260009290919082900301818387803b1580156129ea57600080fd5b505af11580156129fe573d6000803e3d6000fd5b5050600a54600b5460408051631e42d69b60e21b81526001600160a01b03888116600483018190526024830152928316604482015260648101879052905191909216935063790b5a6c9250608480830192600092919082900301818387803b158015612a6957600080fd5b505af1158015612a7d573d6000803e3d6000fd5b5050604080516001600160a01b0386168152602081018590528151600080516020614c998339815191529450908190039091019150a16001600055949350505050565b6007546001600160a01b031681565b6001546001600160a01b03163314612b1c576040805162461bcd60e51b81526020600482015260156024820152600080516020614d18833981519152604482015290519081900360640190fd5b600180546001600160a01b0319166001600160a01b0392909216919091179055565b600d546001600160a01b031681565b600060026000541415612b95576040805162461bcd60e51b815260206004820152601f6024820152600080516020614c79833981519152604482015290519081900360640190fd5b600260005583612bda576040805162461bcd60e51b81526020600482018190526024820152600080516020614ff7833981519152604482015290519081900360640190fd5b600a54600b546040805163098bf59d60e01b815233600482018190526001600160a01b039384166024830152604482018990526064820181905291519193929092169163098bf59d91608480830192600092919082900301818387803b158015612c4357600080fd5b505af1158015612c57573d6000803e3d6000fd5b5050600b546006546040805163098bf59d60e01b81526001600160a01b03878116600483018190529381166024830152604482018c90526064820193909352905191909216935063098bf59d9250608480830192600092919082900301818387803b158015612cc557600080fd5b505af1158015612cd9573d6000803e3d6000fd5b5050600c54600254604080516371d597ad60e01b81526001600160a01b0387811660048301529283166024820152604481018b9052606481018a90523060848201529051600095509190921692506371d597ad9160a48082019260209290919082900301818787803b158015612d4e57600080fd5b505af1158015612d62573d6000803e3d6000fd5b505050506040513d6020811015612d7857600080fd5b505160025460408051632e1a7d4d60e01b81526004810184905290519293506001600160a01b0390911691632e1a7d4d9160248082019260009290919082900301818387803b158015612dca57600080fd5b505af1158015612dde573d6000803e3d6000fd5b50612df6925050506001600160a01b038516826137fc565b604080516001600160a01b038416815260208101889052815160008051602061504b833981519152929181900390910190a1600160005595945050505050565b60026000541415612e7c576040805162461bcd60e51b815260206004820152601f6024820152600080516020614c79833981519152604482015290519081900360640190fd5b60026000908155600954604080516309f4173d60e11b8152336004820181905260248201819052915191936001600160a01b03909316926313e82e7a926044808401936020939083900390910190829087803b158015612edb57600080fd5b505af1158015612eef573d6000803e3d6000fd5b505050506040513d6020811015612f0557600080fd5b5050600b54604080516309f4173d60e11b81526001600160a01b03848116600483018190526024830152915191909216916313e82e7a9160448083019260209291908290030181600087803b1580156113b657600080fd5b60026000541415612fa3576040805162461bcd60e51b815260206004820152601f6024820152600080516020614c79833981519152604482015290519081900360640190fd5b6002600055600454610d959033906001600160a01b03168360016132a5565b6006546001600160a01b031681565b600f602052600090815260409020546001600160a01b031681565b6008546001600160a01b031681565b60026000541415613041576040805162461bcd60e51b815260206004820152601f6024820152600080516020614c79833981519152604482015290519081900360640190fd5b6002600055600d54604080516370a0823160e01b815233600482015290516001600160a01b03909216916370a0823191602480820192602092909190829003018186803b15801561309157600080fd5b505afa1580156130a5573d6000803e3d6000fd5b505050506040513d60208110156130bb57600080fd5b5051156130f95760405162461bcd60e51b8152600401808060200182810382526026815260200180614cf26026913960400191505060405180910390fd5b600e54604080516370a0823160e01b815233600482015290516001600160a01b03909216916370a0823191602480820192602092909190829003018186803b15801561314457600080fd5b505afa158015613158573d6000803e3d6000fd5b505050506040513d602081101561316e57600080fd5b5051156131ac5760405162461bcd60e51b8152600401808060200182810382526026815260200180614cf26026913960400191505060405180910390fd5b6131b581613af0565b336000908152600f6020526040812080546001600160a01b0319166001600160a01b03939093169290921790915560019055565b6002600054141561322f576040805162461bcd60e51b815260206004820152601f6024820152600080516020614c79833981519152604482015290519081900360640190fd5b600260005561323d336137e7565b6001600055565b6003546001600160a01b031681565b604080516001600160a01b038416602482015260448082018490528251808303909101815260649091019091526020810180516001600160e01b031663a9059cbb60e01b179052610a8f908490614640565b600082116132e8576040805162461bcd60e51b815260206004820152601d60248201526000805160206150fa833981519152604482015290519081900360640190fd5b600754604080516310c1c10360e01b81526001600160a01b038781166004830152915160009392909216916310c1c10391602480820192602092909190829003018186803b15801561333957600080fd5b505afa15801561334d573d6000803e3d6000fd5b505050506040513d602081101561336357600080fd5b50516009546008546040805163098bf59d60e01b81526001600160a01b038a8116600483018190529381166024830152604482018990526064820193909352905193945091169163098bf59d9160848082019260009290919082900301818387803b1580156133d157600080fd5b505af11580156133e5573d6000803e3d6000fd5b50506008546007546040805163098bf59d60e01b81526001600160a01b038b8116600483018190529381166024830152604482018a90526064820193909352905191909216935063098bf59d9250608480830192600092919082900301818387803b15801561345357600080fd5b505af1158015613467573d6000803e3d6000fd5b50506007546040805163098bf59d60e01b81526001600160a01b038a8116600483018190528a82166024840152604483018a90526064830152915191909216935063098bf59d9250608480830192600092919082900301818387803b1580156134cf57600080fd5b505af11580156134e3573d6000803e3d6000fd5b50505050811561379657600854604080516309f4173d60e11b81526001600160a01b03888116600483018190526024830152915160009392909216916313e82e7a9160448082019260209290919082900301818787803b15801561354657600080fd5b505af115801561355a573d6000803e3d6000fd5b505050506040513d602081101561357057600080fd5b5051905080156135fa5760095460055460408051631e42d69b60e21b81526001600160a01b038a81166004830181905260248301529283166044820152606481018590529051919092169163790b5a6c91608480830192600092919082900301818387803b1580156135e157600080fd5b505af11580156135f5573d6000803e3d6000fd5b505050505b60095460055460408051637aeceb1f60e11b81526001600160a01b038a8116600483015292831660248201529051600093929092169163f5d9d63e91604480820192602092909190829003018186803b15801561365657600080fd5b505afa15801561366a573d6000803e3d6000fd5b505050506040513d602081101561368057600080fd5b5051905080156137935760006136a08461369a84896146f1565b90614753565b6009546005546040805163098bf59d60e01b81526001600160a01b038d8116600483018190529381166024830152604482018690526064820193909352905193945091169163098bf59d9160848082019260009290919082900301818387803b15801561370c57600080fd5b505af1158015613720573d6000803e3d6000fd5b505060055460408051632770a7eb60e21b81526001600160a01b038d81166004830152602482018790529151919092169350639dc29fac9250604480830192600092919082900301818387803b15801561377957600080fd5b505af115801561378d573d6000803e3d6000fd5b50505050505b50505b604080516001600160a01b0380881682528616602082015280820185905290517f078e2fe6dabb5c8d98e723c50fa64329b611734ca334bb6b9f2ecdaa282093409181900360600190a15050505050565b6137f081614792565b6137f98161494a565b50565b80471015613851576040805162461bcd60e51b815260206004820152601d60248201527f416464726573733a20696e73756666696369656e742062616c616e6365000000604482015290519081900360640190fd5b6040516000906001600160a01b0384169083908381818185875af1925050503d806000811461389c576040519150601f19603f3d011682016040523d82523d6000602084013e6138a1565b606091505b5050905080610a8f5760405162461bcd60e51b815260040180806020018281038252603a815260200180614d6c603a913960400191505060405180910390fd5b60008111613924576040805162461bcd60e51b815260206004820152601d60248201526000805160206150fa833981519152604482015290519081900360640190fd5b60075460408051631e42d69b60e21b81526001600160a01b03878116600483015286811660248301528581166044830152606482018590529151919092169163790b5a6c91608480830192600092919082900301818387803b15801561398957600080fd5b505af115801561399d573d6000803e3d6000fd5b505060085460075460408051631e42d69b60e21b81526001600160a01b03898116600483018190526024830152928316604482015260648101879052905191909216935063790b5a6c9250608480830192600092919082900301818387803b158015613a0857600080fd5b505af1158015613a1c573d6000803e3d6000fd5b505060095460085460408051631e42d69b60e21b81526001600160a01b03898116600483018190526024830152928316604482015260648101879052905191909216935063790b5a6c9250608480830192600092919082900301818387803b158015613a8757600080fd5b505af1158015613a9b573d6000803e3d6000fd5b5050604080516001600160a01b0380881682528616602082015280820185905290517f9aa02c4a3d4e3537fb517760136762eeb484da4444486e74ac81273ed42ce6f99350908190036060019150a150505050565b6007546040805163a318021760e01b81526001600160a01b0384811660048301529151919092169163a3180217916024808301926020929190829003018186803b158015613b3d57600080fd5b505afa158015613b51573d6000803e3d6000fd5b505050506040513d6020811015613b6757600080fd5b505115613ba55760405162461bcd60e51b8152600401808060200182810382526038815260200180614f536038913960400191505060405180910390fd5b60075460408051633792def360e01b81526001600160a01b03848116600483015291519190921691633792def3916024808301926020929190829003018186803b158015613bf257600080fd5b505afa158015613c06573d6000803e3d6000fd5b505050506040513d6020811015613c1c57600080fd5b505115613c5a5760405162461bcd60e51b8152600401808060200182810382526035815260200180614f8b6035913960400191505060405180910390fd5b6008546040805163a318021760e01b81526001600160a01b0384811660048301529151919092169163a3180217916024808301926020929190829003018186803b158015613ca757600080fd5b505afa158015613cbb573d6000803e3d6000fd5b505050506040513d6020811015613cd157600080fd5b505115613d0f5760405162461bcd60e51b8152600401808060200182810382526037815260200180614fc06037913960400191505060405180910390fd5b60085460408051633792def360e01b81526001600160a01b03848116600483015291519190921691633792def3916024808301926020929190829003018186803b158015613d5c57600080fd5b505afa158015613d70573d6000803e3d6000fd5b505050506040513d6020811015613d8657600080fd5b505115613dc45760405162461bcd60e51b81526004018080602001828103825260348152602001806150176034913960400191505060405180910390fd5b6009546040805163a318021760e01b81526001600160a01b0384811660048301529151919092169163a3180217916024808301926020929190829003018186803b158015613e1157600080fd5b505afa158015613e25573d6000803e3d6000fd5b505050506040513d6020811015613e3b57600080fd5b505115613e795760405162461bcd60e51b8152600401808060200182810382526035815260200180614f1e6035913960400191505060405180910390fd5b60095460408051633792def360e01b81526001600160a01b03848116600483015291519190921691633792def3916024808301926020929190829003018186803b158015613ec657600080fd5b505afa158015613eda573d6000803e3d6000fd5b505050506040513d6020811015613ef057600080fd5b505115613f2e5760405162461bcd60e51b8152600401808060200182810382526032815260200180614ecb6032913960400191505060405180910390fd5b600d5460408051631ccdc0d760e21b81526001600160a01b03848116600483015291519190921691637337035c916024808301926020929190829003018186803b158015613f7b57600080fd5b505afa158015613f8f573d6000803e3d6000fd5b505050506040513d6020811015613fa557600080fd5b505115613fe35760405162461bcd60e51b815260040180806020018281038252603c815260200180614e24603c913960400191505060405180910390fd5b600d5460408051635b8de71560e11b81526001600160a01b0384811660048301529151919092169163b71bce2a916024808301926020929190829003018186803b15801561403057600080fd5b505afa158015614044573d6000803e3d6000fd5b505050506040513d602081101561405a57600080fd5b5051156140985760405162461bcd60e51b8152600401808060200182810382526039815260200180614cb96039913960400191505060405180910390fd5b600a546040805163a318021760e01b81526001600160a01b0384811660048301529151919092169163a3180217916024808301926020929190829003018186803b1580156140e557600080fd5b505afa1580156140f9573d6000803e3d6000fd5b505050506040513d602081101561410f57600080fd5b50511561414d5760405162461bcd60e51b8152600401808060200182810382526037815260200180614ded6037913960400191505060405180910390fd5b600a5460408051633792def360e01b81526001600160a01b03848116600483015291519190921691633792def3916024808301926020929190829003018186803b15801561419a57600080fd5b505afa1580156141ae573d6000803e3d6000fd5b505050506040513d60208110156141c457600080fd5b5051156142025760405162461bcd60e51b8152600401808060200182810382526034815260200180614d386034913960400191505060405180910390fd5b600b546040805163a318021760e01b81526001600160a01b0384811660048301529151919092169163a3180217916024808301926020929190829003018186803b15801561424f57600080fd5b505afa158015614263573d6000803e3d6000fd5b505050506040513d602081101561427957600080fd5b5051156142b75760405162461bcd60e51b81526004018080602001828103825260348152602001806150956034913960400191505060405180910390fd5b600b5460408051633792def360e01b81526001600160a01b03848116600483015291519190921691633792def3916024808301926020929190829003018186803b15801561430457600080fd5b505afa158015614318573d6000803e3d6000fd5b505050506040513d602081101561432e57600080fd5b50511561436c5760405162461bcd60e51b81526004018080602001828103825260318152602001806150c96031913960400191505060405180910390fd5b600e5460408051631ccdc0d760e21b81526001600160a01b03848116600483015291519190921691637337035c916024808301926020929190829003018186803b1580156143b957600080fd5b505afa1580156143cd573d6000803e3d6000fd5b505050506040513d60208110156143e357600080fd5b5051156144215760405162461bcd60e51b815260040180806020018281038252603c815260200180614e24603c913960400191505060405180910390fd5b600e5460408051635b8de71560e11b81526001600160a01b0384811660048301529151919092169163b71bce2a916024808301926020929190829003018186803b15801561446e57600080fd5b505afa158015614482573d6000803e3d6000fd5b505050506040513d602081101561449857600080fd5b5051156144d65760405162461bcd60e51b8152600401808060200182810382526039815260200180614cb96039913960400191505060405180910390fd5b600d54604080516370a0823160e01b81526001600160a01b038481166004830152915191909216916370a08231916024808301926020929190829003018186803b15801561452357600080fd5b505afa158015614537573d6000803e3d6000fd5b505050506040513d602081101561454d57600080fd5b50511561458b5760405162461bcd60e51b8152600401808060200182810382526024815260200180614e606024913960400191505060405180910390fd5b600e54604080516370a0823160e01b81526001600160a01b038481166004830152915191909216916370a08231916024808301926020929190829003018186803b1580156145d857600080fd5b505afa1580156145ec573d6000803e3d6000fd5b505050506040513d602081101561460257600080fd5b5051156137f95760405162461bcd60e51b8152600401808060200182810382526023815260200180614ea86023913960400191505060405180910390fd5b6060614695826040518060400160405280602081526020017f5361666545524332303a206c6f772d6c6576656c2063616c6c206661696c6564815250856001600160a01b03166149f59092919063ffffffff16565b805190915015610a8f578080602001905160208110156146b457600080fd5b5051610a8f5760405162461bcd60e51b815260040180806020018281038252602a81526020018061506b602a913960400191505060405180910390fd5b6000826147005750600061474d565b8282028284828161470d57fe5b041461474a5760405162461bcd60e51b8152600401808060200182810382526021815260200180614efd6021913960400191505060405180910390fd5b90505b92915050565b600061474a83836040518060400160405280601a815260200179536166654d6174683a206469766973696f6e206279207a65726f60301b815250614a0e565b600754604080516309f4173d60e11b81526001600160a01b03848116600483018190526024830152915160009392909216916313e82e7a9160448082019260209290919082900301818787803b1580156147eb57600080fd5b505af11580156147ff573d6000803e3d6000fd5b505050506040513d602081101561481557600080fd5b5051905080156148395760045461483990839081906001600160a01b0316846138e1565b600854604080516309f4173d60e11b81526001600160a01b03858116600483018190526024830152915160009392909216916313e82e7a9160448082019260209290919082900301818787803b15801561489257600080fd5b505af11580156148a6573d6000803e3d6000fd5b505050506040513d60208110156148bc57600080fd5b505190508015610a8f5760095460055460408051631e42d69b60e21b81526001600160a01b038781166004830181905260248301529283166044820152606481018590529051919092169163790b5a6c91608480830192600092919082900301818387803b15801561492d57600080fd5b505af1158015614941573d6000803e3d6000fd5b50505050505050565b600a54604080516309f4173d60e11b81526001600160a01b03848116600483018190526024830152915160009392909216916313e82e7a9160448082019260209290919082900301818787803b1580156149a357600080fd5b505af11580156149b7573d6000803e3d6000fd5b505050506040513d60208110156149cd57600080fd5b5051905080156149f1576004546149f190839081906001600160a01b0316846138e1565b5050565b6060614a048484600085614ab0565b90505b9392505050565b60008183614a9a5760405162461bcd60e51b81526004018080602001828103825283818151815260200191508051906020019080838360005b83811015614a5f578181015183820152602001614a47565b50505050905090810190601f168015614a8c5780820380516001836020036101000a031916815260200191505b509250505060405180910390fd5b506000838581614aa657fe5b0495945050505050565b606082471015614af15760405162461bcd60e51b8152600401808060200182810382526026815260200180614dc76026913960400191505060405180910390fd5b614afa85614c0c565b614b4b576040805162461bcd60e51b815260206004820152601d60248201527f416464726573733a2063616c6c20746f206e6f6e2d636f6e7472616374000000604482015290519081900360640190fd5b60006060866001600160a01b031685876040518082805190602001908083835b60208310614b8a5780518252601f199092019160209182019101614b6b565b6001836020036101000a03801982511681845116808217855250505050505090500191505060006040518083038185875af1925050503d8060008114614bec576040519150601f19603f3d011682016040523d82523d6000602084013e614bf1565b606091505b5091509150614c01828286614c12565b979650505050505050565b3b151590565b60608315614c21575081614a07565b825115614c315782518084602001fd5b60405162461bcd60e51b8152602060048201818152845160248401528451859391928392604401919085019080838360008315614a5f578181015183820152602001614a4756fe5265656e7472616e637947756172643a207265656e7472616e742063616c6c00590f78242b486137ed0130a565e7dd5376d88cd0a3d45ce3e49634ae4af35b8d526577617264526f757465723a206f70656e5665737465722e7472616e7366657272656443756d756c617469766552657761726473203e2030526577617264526f757465723a2073656e646572206861732076657374656420746f6b656e73476f7665726e61626c653a20666f7262696464656e0000000000000000000000526577617264526f757465723a207374616b65644f6170547261636b65722e63756d756c617469766552657761726473203e2030416464726573733a20756e61626c6520746f2073656e642076616c75652c20726563697069656e74206d61792068617665207265766572746564526577617264526f757465723a20616c726561647920696e697469616c697a6564416464726573733a20696e73756666696369656e742062616c616e636520666f722063616c6c526577617264526f757465723a207374616b65644f6170547261636b65722e617665726167655374616b6564416d6f756e7473203e2030526577617264526f757465723a206f70656e5665737465722e7472616e73666572726564417665726167655374616b6564416d6f756e7473203e2030526577617264526f757465723a206f70656e5665737465722e62616c616e6365203e2030526577617264526f757465723a207472616e73666572206e6f74207369676e616c6c6564526577617264526f757465723a206f61705665737465722e62616c616e6365203e2030526577617264526f757465723a206665654f70656e547261636b65722e63756d756c617469766552657761726473203e2030536166654d6174683a206d756c7469706c69636174696f6e206f766572666c6f77526577617264526f757465723a206665654f70656e547261636b65722e617665726167655374616b6564416d6f756e7473203e2030526577617264526f757465723a207374616b65644f70656e547261636b65722e617665726167655374616b6564416d6f756e7473203e2030526577617264526f757465723a207374616b65644f70656e547261636b65722e63756d756c617469766552657761726473203e2030526577617264526f757465723a20626f6e75734f70656e547261636b65722e617665726167655374616b6564416d6f756e7473203e2030526577617264526f757465723a20696e76616c6964205f6f6170416d6f756e74526577617264526f757465723a20626f6e75734f70656e547261636b65722e63756d756c617469766552657761726473203e2030cc23fc66e1bbcc39c6c2eb751f29b706cbb99681d2c1f02e7f8a59e92dedf2d85361666545524332303a204552433230206f7065726174696f6e20646964206e6f742073756363656564526577617264526f757465723a206665654f6170547261636b65722e617665726167655374616b6564416d6f756e7473203e2030526577617264526f757465723a206665654f6170547261636b65722e63756d756c617469766552657761726473203e2030526577617264526f757465723a20696e76616c6964205f616d6f756e74000000a2646970667358221220ab0a2752f07d51f9fdb15ff68170d33704bf40ee5c72e6cf6f3bb0284e0be0df64736f6c634300060c0033",
  "linkReferences": {},
  "deployedLinkReferences": {}
}